{"contracts/DAYATokenStandalone.sol":{"DAYATokenStandalone":{"abi":[{"inputs":[],"stateMutability":"nonpayable","type":"constructor"},{"anonymous":false,"inputs":[{"indexed":true,"internalType":"address","name":"owner","type":"address"},{"indexed":true,"internalType":"address","name":"spender","type":"address"},{"indexed":false,"internalType":"uint256","name":"value","type":"uint256"}],"name":"Approval","type":"event"},{"anonymous":false,"inputs":[{"indexed":false,"internalType":"uint256","name":"timestamp","type":"uint256"}],"name":"AutoRenounceExecuted","type":"event"},{"anonymous":false,"inputs":[{"indexed":false,"internalType":"uint256","name":"endTime","type":"uint256"}],"name":"EmergencyModeActivated","type":"event"},{"anonymous":false,"inputs":[],"name":"EmergencyModeDeactivated","type":"event"},{"anonymous":false,"inputs":[{"indexed":true,"internalType":"address","name":"previousOwner","type":"address"},{"indexed":true,"internalType":"address","name":"newOwner","type":"address"}],"name":"OwnershipTransferred","type":"event"},{"anonymous":false,"inputs":[],"name":"TradingEnabled","type":"event"},{"anonymous":false,"inputs":[{"indexed":true,"internalType":"address","name":"from","type":"address"},{"indexed":true,"internalType":"address","name":"to","type":"address"},{"indexed":false,"internalType":"uint256","name":"value","type":"uint256"}],"name":"Transfer","type":"event"},{"inputs":[],"name":"AUTO_RENOUNCE_DELAY","outputs":[{"internalType":"uint256","name":"","type":"uint256"}],"stateMutability":"view","type":"function"},{"inputs":[{"internalType":"uint256","name":"_durationHours","type":"uint256"}],"name":"activateEmergencyMode","outputs":[],"stateMutability":"nonpayable","type":"function"},{"inputs":[{"internalType":"address","name":"owner","type":"address"},{"internalType":"address","name":"spender","type":"address"}],"name":"allowance","outputs":[{"internalType":"uint256","name":"","type":"uint256"}],"stateMutability":"view","type":"function"},{"inputs":[{"internalType":"address","name":"spender","type":"address"},{"internalType":"uint256","name":"amount","type":"uint256"}],"name":"approve","outputs":[{"internalType":"bool","name":"","type":"bool"}],"stateMutability":"nonpayable","type":"function"},{"inputs":[],"name":"autoUnpause","outputs":[],"stateMutability":"nonpayable","type":"function"},{"inputs":[{"internalType":"address","name":"account","type":"address"}],"name":"balanceOf","outputs":[{"internalType":"uint256","name":"","type":"uint256"}],"stateMutability":"view","type":"function"},{"inputs":[{"internalType":"uint256","name":"amount","type":"uint256"}],"name":"burn","outputs":[],"stateMutability":"nonpayable","type":"function"},{"inputs":[],"name":"deactivateEmergencyMode","outputs":[],"stateMutability":"nonpayable","type":"function"},{"inputs":[],"name":"decimals","outputs":[{"internalType":"uint8","name":"","type":"uint8"}],"stateMutability":"view","type":"function"},{"inputs":[],"name":"deploymentTime","outputs":[{"internalType":"uint256","name":"","type":"uint256"}],"stateMutability":"view","type":"function"},{"inputs":[],"name":"emergencyMode","outputs":[{"internalType":"bool","name":"","type":"bool"}],"stateMutability":"view","type":"function"},{"inputs":[],"name":"emergencyModeEndTime","outputs":[{"internalType":"uint256","name":"","type":"uint256"}],"stateMutability":"view","type":"function"},{"inputs":[],"name":"enableTrading","outputs":[],"stateMutability":"nonpayable","type":"function"},{"inputs":[{"internalType":"address","name":"_address","type":"address"},{"internalType":"bool","name":"_excluded","type":"bool"}],"name":"excludeFromLimits","outputs":[],"stateMutability":"nonpayable","type":"function"},{"inputs":[],"name":"executeAutoRenounce","outputs":[],"stateMutability":"nonpayable","type":"function"},{"inputs":[],"name":"getAutoRenounceInfo","outputs":[{"internalType":"uint256","name":"deployTime","type":"uint256"},{"internalType":"uint256","name":"renounceTime","type":"uint256"},{"internalType":"bool","name":"isRenounced","type":"bool"},{"internalType":"uint256","name":"timeRemaining","type":"uint256"}],"stateMutability":"view","type":"function"},{"inputs":[],"name":"getEmergencyModeStatus","outputs":[{"internalType":"bool","name":"active","type":"bool"},{"internalType":"uint256","name":"timeRemaining","type":"uint256"}],"stateMutability":"view","type":"function"},{"inputs":[],"name":"getSecurityInfo","outputs":[{"internalType":"string","name":"auditStatus","type":"string"},{"internalType":"string","name":"securityFeatures","type":"string"},{"internalType":"string","name":"riskLevel","type":"string"},{"internalType":"string","name":"autoRenounceStatus","type":"string"}],"stateMutability":"pure","type":"function"},{"inputs":[],"name":"getTimeUntilAutoRenounce","outputs":[{"internalType":"uint256","name":"","type":"uint256"}],"stateMutability":"view","type":"function"},{"inputs":[{"internalType":"uint256","name":"_newAmount","type":"uint256"}],"name":"increaseMaxTxAmount","outputs":[],"stateMutability":"nonpayable","type":"function"},{"inputs":[{"internalType":"uint256","name":"_newAmount","type":"uint256"}],"name":"increaseMaxWalletAmount","outputs":[],"stateMutability":"nonpayable","type":"function"},{"inputs":[{"internalType":"address","name":"","type":"address"}],"name":"isExcludedFromLimits","outputs":[{"internalType":"bool","name":"","type":"bool"}],"stateMutability":"view","type":"function"},{"inputs":[],"name":"isFullyDecentralized","outputs":[{"internalType":"bool","name":"","type":"bool"}],"stateMutability":"view","type":"function"},{"inputs":[],"name":"isOwnershipAutoRenounced","outputs":[{"internalType":"bool","name":"","type":"bool"}],"stateMutability":"view","type":"function"},{"inputs":[],"name":"maxTxAmount","outputs":[{"internalType":"uint256","name":"","type":"uint256"}],"stateMutability":"view","type":"function"},{"inputs":[],"name":"maxWalletAmount","outputs":[{"internalType":"uint256","name":"","type":"uint256"}],"stateMutability":"view","type":"function"},{"inputs":[],"name":"name","outputs":[{"internalType":"string","name":"","type":"string"}],"stateMutability":"view","type":"function"},{"inputs":[],"name":"owner","outputs":[{"internalType":"address","name":"","type":"address"}],"stateMutability":"view","type":"function"},{"inputs":[],"name":"ownershipAutoRenounced","outputs":[{"internalType":"bool","name":"","type":"bool"}],"stateMutability":"view","type":"function"},{"inputs":[],"name":"symbol","outputs":[{"internalType":"string","name":"","type":"string"}],"stateMutability":"view","type":"function"},{"inputs":[],"name":"totalSupply","outputs":[{"internalType":"uint256","name":"","type":"uint256"}],"stateMutability":"view","type":"function"},{"inputs":[],"name":"tradingEnabled","outputs":[{"internalType":"bool","name":"","type":"bool"}],"stateMutability":"view","type":"function"},{"inputs":[{"internalType":"address","name":"to","type":"address"},{"internalType":"uint256","name":"amount","type":"uint256"}],"name":"transfer","outputs":[{"internalType":"bool","name":"","type":"bool"}],"stateMutability":"nonpayable","type":"function"},{"inputs":[{"internalType":"address","name":"from","type":"address"},{"internalType":"address","name":"to","type":"address"},{"internalType":"uint256","name":"amount","type":"uint256"}],"name":"transferFrom","outputs":[{"internalType":"bool","name":"","type":"bool"}],"stateMutability":"nonpayable","type":"function"}],"evm":{"bytecode":{"linkReferences":{},"object":"60a060405234801561001057600080fd5b5060408051808201909152600c81526b424153454420444159414e4160a01b60208201526003906100419082610204565b50604080518082019091526004808252634441594160e01b6020830152906100699082610204565b506005805460ff1916601290811790915561008590600a6103c1565b61009390633b9aca006103d7565b60028190554260805260058054610100600160a81b0319163361010081029190911790915560008181526020818152604080832085905551938452919290917fddf252ad1be2c89b69c2b068fc378daa952ba7f163c4a11628f55a4df523b3ef910160405180910390a360006064600254600261011091906103d7565b61011a91906103ee565b600781905560085550336000908152600a60205260408082208054600160ff199182168117909255308452919092208054821683179055600691909155600980549091169055610410565b634e487b7160e01b600052604160045260246000fd5b600181811c9082168061018f57607f821691505b6020821081036101af57634e487b7160e01b600052602260045260246000fd5b50919050565b601f8211156101ff57806000526020600020601f840160051c810160208510156101dc5750805b601f840160051c820191505b818110156101fc57600081556001016101e8565b50505b505050565b81516001600160401b0381111561021d5761021d610165565b6102318161022b845461017b565b846101b5565b6020601f821160018114610265576000831561024d5750848201515b600019600385901b1c1916600184901b1784556101fc565b600084815260208120601f198516915b828110156102955787850151825560209485019460019092019101610275565b50848210156102b35786840151600019600387901b60f8161c191681555b50505050600190811b01905550565b634e487b7160e01b600052601160045260246000fd5b6001815b6001841115610313578085048111156102f7576102f76102c2565b600184161561030557908102905b60019390931c9280026102dc565b935093915050565b60008261032a575060016103bb565b81610337575060006103bb565b816001811461034d576002811461035757610373565b60019150506103bb565b60ff841115610368576103686102c2565b50506001821b6103bb565b5060208310610133831016604e8410600b8410161715610396575081810a6103bb565b6103a360001984846102d8565b80600019048211156103b7576103b76102c2565b0290505b92915050565b60006103d060ff84168361031b565b9392505050565b80820281158282048414176103bb576103bb6102c2565b60008261040b57634e487b7160e01b600052601260045260246000fd5b500490565b6080516119aa61044e60003960008181610488015281816105c501528181610af301528181610b2d01528181610b6c0152610bf001526119aa6000f3fe608060405234801561001057600080fd5b50600436106102065760003560e01c80638da5cb5b1161011a578063aa4bde28116100ad578063c0a904a21161007c578063c0a904a214610424578063d9c5e6d714610437578063dd62ed3e1461044a578063ecda10f514610483578063f684bb01146104aa57600080fd5b8063aa4bde28146103f6578063aca62e00146103ff578063bba7d08514610407578063bd6c350e1461041157600080fd5b806396bf3191116100e957806396bf3191146103c057806399b20eaf146103c85780639a12a0d8146103d0578063a9059cbb146103e357600080fd5b80638da5cb5b146103625780638fa43d031461038257806395d89b411461038a578063969b80481461039257600080fd5b806349cea1621161019d578063774921f21161016c578063774921f2146103115780637d6e185a1461031a5780638711a719146103395780638a8c523c146103515780638c0b5e221461035957600080fd5b806349cea162146102b05780634ada218b146102b85780635cce86cd146102c557806370a08231146102e857600080fd5b806318160ddd116101d957806318160ddd1461026357806323b872dd14610275578063313ce5671461028857806342966c681461029d57600080fd5b806306fdde031461020b5780630905f56014610229578063095ea7b314610246578063139b8cbc14610259575b600080fd5b6102136104b7565b604051610220919061162e565b60405180910390f35b600b546102369060ff1681565b6040519015158152602001610220565b610236610254366004611664565b610549565b610261610560565b005b6002545b604051908152602001610220565b61023661028336600461168e565b61071e565b60055460405160ff9091168152602001610220565b6102616102ab3660046116cb565b6107cd565b610236610900565b6009546102369060ff1681565b6102366102d33660046116e4565b600a6020526000908152604090205460ff1681565b6102676102f63660046116e4565b6001600160a01b031660009081526020819052604090205490565b610267600c5481565b61032261090f565b604080519215158352602083019190915201610220565b61034161094b565b60405161022094939291906116ff565b6102616109e0565b61026760085481565b61036a610aab565b6040516001600160a01b039091168152602001610220565b610267610ad5565b610213610b5b565b61039a610b6a565b604080519485526020850193909352901515918301919091526060820152608001610220565b610236610bd8565b610261610c1c565b6102616103de3660046116cb565b610ce8565b6102366103f1366004611664565b610db8565b61026760075481565b610261610dc5565b610267624f1a0081565b61026161041f3660046116cb565b610e24565b610261610432366004611757565b610ee8565b6102616104453660046116cb565b610f9b565b610267610458366004611793565b6001600160a01b03918216600090815260016020908152604080832093909416825291909152205490565b6102677f000000000000000000000000000000000000000000000000000000000000000081565b600d546102369060ff1681565b6060600380546104c6906117c6565b80601f01602080910402602001604051908101604052809291908181526020018280546104f2906117c6565b801561053f5780601f106105145761010080835404028352916020019161053f565b820191906000526020600020905b81548152906001019060200180831161052257829003601f168201915b5050505050905090565b60006105563384846110eb565b5060015b92915050565b6002600654036105b75760405162461bcd60e51b815260206004820152601f60248201527f5265656e7472616e637947756172643a207265656e7472616e742063616c6c0060448201526064015b60405180910390fd5b60026006556105e9624f1a007f0000000000000000000000000000000000000000000000000000000000000000611816565b4210156106385760405162461bcd60e51b815260206004820152601e60248201527f4175746f2d72656e6f756e63652074696d65206e6f742072656163686564000060448201526064016105ae565b600d5460ff16156106845760405162461bcd60e51b8152602060048201526016602482015275105b1c9958591e48185d5d1bcb5c995b9bdd5b98d95960521b60448201526064016105ae565b600d8054600160ff1990911617905560058054610100600160a81b031981169091556040516101009091046001600160a01b03169060009082907f8be0079c531659141344cd1fd0a4f28419497f9722a3daafe3b4186f6b6457e0908390a36040514281527f745f8278fd0f921aa109aa7e8248084a162002f3bde74aada89120f653a564a19060200160405180910390a1506001600655565b6001600160a01b0383166000908152600160209081526040808320338452909152812054828110156107a35760405162461bcd60e51b815260206004820152602860248201527f45524332303a207472616e7366657220616d6f756e74206578636565647320616044820152676c6c6f77616e636560c01b60648201526084016105ae565b6107ae858585611210565b6107c285336107bd8685611829565b6110eb565b506001949350505050565b60026006540361081f5760405162461bcd60e51b815260206004820152601f60248201527f5265656e7472616e637947756172643a207265656e7472616e742063616c6c0060448201526064016105ae565b6002600655336000908152602081905260409020548111156108835760405162461bcd60e51b815260206004820152601b60248201527f4275726e20616d6f756e7420657863656564732062616c616e6365000000000060448201526064016105ae565b33600090815260208190526040812080548392906108a2908490611829565b9250508190555080600260008282546108bb9190611829565b909155505060405181815260009033907fddf252ad1be2c89b69c2b068fc378daa952ba7f163c4a11628f55a4df523b3ef9060200160405180910390a3506001600655565b600061090a610bd8565b905090565b600b54600090819060ff1680156109285750600c544211155b915081156109445742600c5461093e9190611829565b90509091565b5060009091565b6060806060806040518060600160405280602c8152602001611921602c913993506040518060600160405280603581526020016118ec6035913992506040518060400160405280601e81526020017f556c747261204c6f77202d204175746f2d646563656e7472616c697a65640000815250915060405180606001604052806028815260200161194d60289139905090919293565b6109e8610bd8565b158015610a04575060055461010090046001600160a01b031633145b610a205760405162461bcd60e51b81526004016105ae9061183c565b60095460ff1615610a735760405162461bcd60e51b815260206004820152601760248201527f54726164696e6720616c726561647920656e61626c656400000000000000000060448201526064016105ae565b6009805460ff191660011790556040517f799663458a5ef2936f7fa0c99b3336c69c25890f82974f04e811e5bb359186c790600090a1565b6000610ab5610bd8565b15610ac05750600090565b5060055461010090046001600160a01b031690565b6000610adf610bd8565b15610aea5750600090565b610b17624f1a007f0000000000000000000000000000000000000000000000000000000000000000611816565b4210610b235750600090565b42610b51624f1a007f0000000000000000000000000000000000000000000000000000000000000000611816565b61090a9190611829565b6060600480546104c6906117c6565b7f000000000000000000000000000000000000000000000000000000000000000060008080610b9c624f1a0085611816565b9250610ba6610bd8565b91508115610bb657506000610bd2565b824210610bc557506000610bd2565b610bcf4284611829565b90505b90919293565b600d5460009060ff168061090a5750610c14624f1a007f0000000000000000000000000000000000000000000000000000000000000000611816565b421015905090565b610c24610bd8565b158015610c40575060055461010090046001600160a01b031633145b610c5c5760405162461bcd60e51b81526004016105ae9061183c565b600b5460ff16610cae5760405162461bcd60e51b815260206004820152601960248201527f456d657267656e6379206d6f6465206e6f74206163746976650000000000000060448201526064016105ae565b600b805460ff191690556000600c8190556040517f70b9dcaceb756943ac1a4f48b8df9ea82fbb012b87e405cba4ed77d1ded0df419190a1565b610cf0610bd8565b158015610d0c575060055461010090046001600160a01b031633145b610d285760405162461bcd60e51b81526004016105ae9061183c565b6007548111610d855760405162461bcd60e51b815260206004820152602360248201527f43616e206f6e6c7920696e637265617365206d61782077616c6c657420616d6f6044820152621d5b9d60ea1b60648201526084016105ae565b600a600254610d949190611871565b811115610db35760405162461bcd60e51b81526004016105ae90611893565b600755565b6000610556338484611210565b600b5460ff168015610dd85750600c5442115b610cae5760405162461bcd60e51b815260206004820152601b60248201527f456d657267656e6379206d6f6465207374696c6c20616374697665000000000060448201526064016105ae565b610e2c610bd8565b158015610e48575060055461010090046001600160a01b031633145b610e645760405162461bcd60e51b81526004016105ae9061183c565b6008548111610eb55760405162461bcd60e51b815260206004820152601f60248201527f43616e206f6e6c7920696e637265617365206d617820747820616d6f756e740060448201526064016105ae565b600a600254610ec49190611871565b811115610ee35760405162461bcd60e51b81526004016105ae90611893565b600855565b610ef0610bd8565b158015610f0c575060055461010090046001600160a01b031633145b610f285760405162461bcd60e51b81526004016105ae9061183c565b6001600160a01b038216610f705760405162461bcd60e51b815260206004820152600f60248201526e496e76616c6964206164647265737360881b60448201526064016105ae565b6001600160a01b03919091166000908152600a60205260409020805460ff1916911515919091179055565b610fa3610bd8565b158015610fbf575060055461010090046001600160a01b031633145b610fdb5760405162461bcd60e51b81526004016105ae9061183c565b604881111561103a5760405162461bcd60e51b815260206004820152602560248201527f456d657267656e6379206d6f64652063616e6e6f742065786365656420373220604482015264686f75727360d81b60648201526084016105ae565b600b5460ff161561108d5760405162461bcd60e51b815260206004820152601d60248201527f456d657267656e6379206d6f646520616c72656164792061637469766500000060448201526064016105ae565b600b805460ff191660011790556110a681610e106118d4565b6110b09042611816565b600c8190556040519081527f5fa9abb83376468762d4533d9cd0a8f21edf0033fa06b47347578fb235a92edc9060200160405180910390a150565b6001600160a01b03831661114d5760405162461bcd60e51b8152602060048201526024808201527f45524332303a20617070726f76652066726f6d20746865207a65726f206164646044820152637265737360e01b60648201526084016105ae565b6001600160a01b0382166111ae5760405162461bcd60e51b815260206004820152602260248201527f45524332303a20617070726f766520746f20746865207a65726f206164647265604482015261737360f01b60648201526084016105ae565b6001600160a01b0383811660008181526001602090815260408083209487168084529482529182902085905590518481527f8c5be1e5ebec7d5bd14f71427d1e84f3dd0314c0f7b2291e5b200ac8c7c3b92591015b60405180910390a3505050565b600b5460ff1615806112235750600c5442115b6112675760405162461bcd60e51b8152602060048201526015602482015274456d657267656e6379206d6f64652061637469766560581b60448201526064016105ae565b6001600160a01b0383166112cb5760405162461bcd60e51b815260206004820152602560248201527f45524332303a207472616e736665722066726f6d20746865207a65726f206164604482015264647265737360d81b60648201526084016105ae565b6001600160a01b03821661132d5760405162461bcd60e51b815260206004820152602360248201527f45524332303a207472616e7366657220746f20746865207a65726f206164647260448201526265737360e81b60648201526084016105ae565b6001600160a01b0383166000908152602081905260409020548111156113a45760405162461bcd60e51b815260206004820152602660248201527f45524332303a207472616e7366657220616d6f756e7420657863656564732062604482015265616c616e636560d01b60648201526084016105ae565b60095460ff16611439576001600160a01b0383166000908152600a602052604090205460ff16806113ed57506001600160a01b0382166000908152600a602052604090205460ff165b6114395760405162461bcd60e51b815260206004820152601760248201527f54726164696e67206e6f742079657420656e61626c656400000000000000000060448201526064016105ae565b6001600160a01b0383166000908152600a602052604090205460ff1615801561147b57506001600160a01b0382166000908152600a602052604090205460ff16155b15611547576008548111156114d25760405162461bcd60e51b815260206004820152601f60248201527f5472616e7366657220616d6f756e742065786365656473206d6178696d756d0060448201526064016105ae565b6007546001600160a01b0383166000908152602081905260409020546114f9908390611816565b11156115475760405162461bcd60e51b815260206004820152601b60248201527f57616c6c657420776f756c6420657863656564206d6178696d756d000000000060448201526064016105ae565b6001600160a01b0383166000908152602081905260408120805483929061156f908490611829565b90915550506001600160a01b0382166000908152602081905260408120805483929061159c908490611816565b92505081905550816001600160a01b0316836001600160a01b03167fddf252ad1be2c89b69c2b068fc378daa952ba7f163c4a11628f55a4df523b3ef8360405161120391815260200190565b6000815180845260005b8181101561160e576020818501810151868301820152016115f2565b506000602082860101526020601f19601f83011685010191505092915050565b60208152600061164160208301846115e8565b9392505050565b80356001600160a01b038116811461165f57600080fd5b919050565b6000806040838503121561167757600080fd5b61168083611648565b946020939093013593505050565b6000806000606084860312156116a357600080fd5b6116ac84611648565b92506116ba60208501611648565b929592945050506040919091013590565b6000602082840312156116dd57600080fd5b5035919050565b6000602082840312156116f657600080fd5b61164182611648565b60808152600061171260808301876115e8565b828103602084015261172481876115e8565b9050828103604084015261173881866115e8565b9050828103606084015261174c81856115e8565b979650505050505050565b6000806040838503121561176a57600080fd5b61177383611648565b91506020830135801515811461178857600080fd5b809150509250929050565b600080604083850312156117a657600080fd5b6117af83611648565b91506117bd60208401611648565b90509250929050565b600181811c908216806117da57607f821691505b6020821081036117fa57634e487b7160e01b600052602260045260246000fd5b50919050565b634e487b7160e01b600052601160045260246000fd5b8082018082111561055a5761055a611800565b8181038181111561055a5761055a611800565b6020808252818101527f4e6f74206f776e6572206f72206f776e6572736869702072656e6f756e636564604082015260600190565b60008261188e57634e487b7160e01b600052601260045260246000fd5b500490565b60208082526021908201527f43616e6e6f742065786365656420313025206f6620746f74616c20737570706c6040820152607960f81b606082015260800190565b808202811582820484141761055a5761055a61180056fe4e6f20666565732c206c696d69746564206f776e657220706f776572732c206175746f6d617469632072656e6f756e63656d656e74436f6d6d756e697479207665726966696564207374616e64616c6f6e6520696d706c656d656e746174696f6e36302d646179206175746f6d617469632072656e6f756e63656d656e742067756172616e74656564a264697066735822122077b61a2359b39d9096a4e242b725fb084b048fad5c722699ae38912f93bc949864736f6c634300081a0033","opcodes":"PUSH1 0xA0 PUSH1 0x40 MSTORE CALLVALUE DUP1 ISZERO PUSH2 0x10 JUMPI PUSH1 0x0 DUP1 REVERT JUMPDEST POP PUSH1 0x40 DUP1 MLOAD DUP1 DUP3 ADD SWAP1 SWAP2 MSTORE PUSH1 0xC DUP2 MSTORE PUSH12 0x424153454420444159414E41 PUSH1 0xA0 SHL PUSH1 0x20 DUP3 ADD MSTORE PUSH1 0x3 SWAP1 PUSH2 0x41 SWAP1 DUP3 PUSH2 0x204 JUMP JUMPDEST POP PUSH1 0x40 DUP1 MLOAD DUP1 DUP3 ADD SWAP1 SWAP2 MSTORE PUSH1 0x4 DUP1 DUP3 MSTORE PUSH4 0x44415941 PUSH1 0xE0 SHL PUSH1 0x20 DUP4 ADD MSTORE SWAP1 PUSH2 0x69 SWAP1 DUP3 PUSH2 0x204 JUMP JUMPDEST POP PUSH1 0x5 DUP1 SLOAD PUSH1 0xFF NOT AND PUSH1 0x12 SWAP1 DUP2 OR SWAP1 SWAP2 SSTORE PUSH2 0x85 SWAP1 PUSH1 0xA PUSH2 0x3C1 JUMP JUMPDEST PUSH2 0x93 SWAP1 PUSH4 0x3B9ACA00 PUSH2 0x3D7 JUMP JUMPDEST PUSH1 0x2 DUP2 SWAP1 SSTORE TIMESTAMP PUSH1 0x80 MSTORE PUSH1 0x5 DUP1 SLOAD PUSH2 0x100 PUSH1 0x1 PUSH1 0xA8 SHL SUB NOT AND CALLER PUSH2 0x100 DUP2 MUL SWAP2 SWAP1 SWAP2 OR SWAP1 SWAP2 SSTORE PUSH1 0x0 DUP2 DUP2 MSTORE PUSH1 0x20 DUP2 DUP2 MSTORE PUSH1 0x40 DUP1 DUP4 KECCAK256 DUP6 SWAP1 SSTORE MLOAD SWAP4 DUP5 MSTORE SWAP2 SWAP3 SWAP1 SWAP2 PUSH32 0xDDF252AD1BE2C89B69C2B068FC378DAA952BA7F163C4A11628F55A4DF523B3EF SWAP2 ADD PUSH1 0x40 MLOAD DUP1 SWAP2 SUB SWAP1 LOG3 PUSH1 0x0 PUSH1 0x64 PUSH1 0x2 SLOAD PUSH1 0x2 PUSH2 0x110 SWAP2 SWAP1 PUSH2 0x3D7 JUMP JUMPDEST PUSH2 0x11A SWAP2 SWAP1 PUSH2 0x3EE JUMP JUMPDEST PUSH1 0x7 DUP2 SWAP1 SSTORE PUSH1 0x8 SSTORE POP CALLER PUSH1 0x0 SWAP1 DUP2 MSTORE PUSH1 0xA PUSH1 0x20 MSTORE PUSH1 0x40 DUP1 DUP3 KECCAK256 DUP1 SLOAD PUSH1 0x1 PUSH1 0xFF NOT SWAP2 DUP3 AND DUP2 OR SWAP1 SWAP3 SSTORE ADDRESS DUP5 MSTORE SWAP2 SWAP1 SWAP3 KECCAK256 DUP1 SLOAD DUP3 AND DUP4 OR SWAP1 SSTORE PUSH1 0x6 SWAP2 SWAP1 SWAP2 SSTORE PUSH1 0x9 DUP1 SLOAD SWAP1 SWAP2 AND SWAP1 SSTORE PUSH2 0x410 JUMP JUMPDEST PUSH4 0x4E487B71 PUSH1 0xE0 SHL PUSH1 0x0 MSTORE PUSH1 0x41 PUSH1 0x4 MSTORE PUSH1 0x24 PUSH1 0x0 REVERT JUMPDEST PUSH1 0x1 DUP2 DUP2 SHR SWAP1 DUP3 AND DUP1 PUSH2 0x18F JUMPI PUSH1 0x7F DUP3 AND SWAP2 POP JUMPDEST PUSH1 0x20 DUP3 LT DUP2 SUB PUSH2 0x1AF JUMPI PUSH4 0x4E487B71 PUSH1 0xE0 SHL PUSH1 0x0 MSTORE PUSH1 0x22 PUSH1 0x4 MSTORE PUSH1 0x24 PUSH1 0x0 REVERT JUMPDEST POP SWAP2 SWAP1 POP JUMP JUMPDEST PUSH1 0x1F DUP3 GT ISZERO PUSH2 0x1FF JUMPI DUP1 PUSH1 0x0 MSTORE PUSH1 0x20 PUSH1 0x0 KECCAK256 PUSH1 0x1F DUP5 ADD PUSH1 0x5 SHR DUP2 ADD PUSH1 0x20 DUP6 LT ISZERO PUSH2 0x1DC JUMPI POP DUP1 JUMPDEST PUSH1 0x1F DUP5 ADD PUSH1 0x5 SHR DUP3 ADD SWAP2 POP JUMPDEST DUP2 DUP2 LT ISZERO PUSH2 0x1FC JUMPI PUSH1 0x0 DUP2 SSTORE PUSH1 0x1 ADD PUSH2 0x1E8 JUMP JUMPDEST POP POP JUMPDEST POP POP POP JUMP JUMPDEST DUP2 MLOAD PUSH1 0x1 PUSH1 0x1 PUSH1 0x40 SHL SUB DUP2 GT ISZERO PUSH2 0x21D JUMPI PUSH2 0x21D PUSH2 0x165 JUMP JUMPDEST PUSH2 0x231 DUP2 PUSH2 0x22B DUP5 SLOAD PUSH2 0x17B JUMP JUMPDEST DUP5 PUSH2 0x1B5 JUMP JUMPDEST PUSH1 0x20 PUSH1 0x1F DUP3 GT PUSH1 0x1 DUP2 EQ PUSH2 0x265 JUMPI PUSH1 0x0 DUP4 ISZERO PUSH2 0x24D JUMPI POP DUP5 DUP3 ADD MLOAD JUMPDEST PUSH1 0x0 NOT PUSH1 0x3 DUP6 SWAP1 SHL SHR NOT AND PUSH1 0x1 DUP5 SWAP1 SHL OR DUP5 SSTORE PUSH2 0x1FC JUMP JUMPDEST PUSH1 0x0 DUP5 DUP2 MSTORE PUSH1 0x20 DUP2 KECCAK256 PUSH1 0x1F NOT DUP6 AND SWAP2 JUMPDEST DUP3 DUP2 LT ISZERO PUSH2 0x295 JUMPI DUP8 DUP6 ADD MLOAD DUP3 SSTORE PUSH1 0x20 SWAP5 DUP6 ADD SWAP5 PUSH1 0x1 SWAP1 SWAP3 ADD SWAP2 ADD PUSH2 0x275 JUMP JUMPDEST POP DUP5 DUP3 LT ISZERO PUSH2 0x2B3 JUMPI DUP7 DUP5 ADD MLOAD PUSH1 0x0 NOT PUSH1 0x3 DUP8 SWAP1 SHL PUSH1 0xF8 AND SHR NOT AND DUP2 SSTORE JUMPDEST POP POP POP POP PUSH1 0x1 SWAP1 DUP2 SHL ADD SWAP1 SSTORE POP JUMP JUMPDEST PUSH4 0x4E487B71 PUSH1 0xE0 SHL PUSH1 0x0 MSTORE PUSH1 0x11 PUSH1 0x4 MSTORE PUSH1 0x24 PUSH1 0x0 REVERT JUMPDEST PUSH1 0x1 DUP2 JUMPDEST PUSH1 0x1 DUP5 GT ISZERO PUSH2 0x313 JUMPI DUP1 DUP6 DIV DUP2 GT ISZERO PUSH2 0x2F7 JUMPI PUSH2 0x2F7 PUSH2 0x2C2 JUMP JUMPDEST PUSH1 0x1 DUP5 AND ISZERO PUSH2 0x305 JUMPI SWAP1 DUP2 MUL SWAP1 JUMPDEST PUSH1 0x1 SWAP4 SWAP1 SWAP4 SHR SWAP3 DUP1 MUL PUSH2 0x2DC JUMP JUMPDEST SWAP4 POP SWAP4 SWAP2 POP POP JUMP JUMPDEST PUSH1 0x0 DUP3 PUSH2 0x32A JUMPI POP PUSH1 0x1 PUSH2 0x3BB JUMP JUMPDEST DUP2 PUSH2 0x337 JUMPI POP PUSH1 0x0 PUSH2 0x3BB JUMP JUMPDEST DUP2 PUSH1 0x1 DUP2 EQ PUSH2 0x34D JUMPI PUSH1 0x2 DUP2 EQ PUSH2 0x357 JUMPI PUSH2 0x373 JUMP JUMPDEST PUSH1 0x1 SWAP2 POP POP PUSH2 0x3BB JUMP JUMPDEST PUSH1 0xFF DUP5 GT ISZERO PUSH2 0x368 JUMPI PUSH2 0x368 PUSH2 0x2C2 JUMP JUMPDEST POP POP PUSH1 0x1 DUP3 SHL PUSH2 0x3BB JUMP JUMPDEST POP PUSH1 0x20 DUP4 LT PUSH2 0x133 DUP4 LT AND PUSH1 0x4E DUP5 LT PUSH1 0xB DUP5 LT AND OR ISZERO PUSH2 0x396 JUMPI POP DUP2 DUP2 EXP PUSH2 0x3BB JUMP JUMPDEST PUSH2 0x3A3 PUSH1 0x0 NOT DUP5 DUP5 PUSH2 0x2D8 JUMP JUMPDEST DUP1 PUSH1 0x0 NOT DIV DUP3 GT ISZERO PUSH2 0x3B7 JUMPI PUSH2 0x3B7 PUSH2 0x2C2 JUMP JUMPDEST MUL SWAP1 POP JUMPDEST SWAP3 SWAP2 POP POP JUMP JUMPDEST PUSH1 0x0 PUSH2 0x3D0 PUSH1 0xFF DUP5 AND DUP4 PUSH2 0x31B JUMP JUMPDEST SWAP4 SWAP3 POP POP POP JUMP JUMPDEST DUP1 DUP3 MUL DUP2 ISZERO DUP3 DUP3 DIV DUP5 EQ OR PUSH2 0x3BB JUMPI PUSH2 0x3BB PUSH2 0x2C2 JUMP JUMPDEST PUSH1 0x0 DUP3 PUSH2 0x40B JUMPI PUSH4 0x4E487B71 PUSH1 0xE0 SHL PUSH1 0x0 MSTORE PUSH1 0x12 PUSH1 0x4 MSTORE PUSH1 0x24 PUSH1 0x0 REVERT JUMPDEST POP DIV SWAP1 JUMP JUMPDEST PUSH1 0x80 MLOAD PUSH2 0x19AA PUSH2 0x44E PUSH1 0x0 CODECOPY PUSH1 0x0 DUP2 DUP2 PUSH2 0x488 ADD MSTORE DUP2 DUP2 PUSH2 0x5C5 ADD MSTORE DUP2 DUP2 PUSH2 0xAF3 ADD MSTORE DUP2 DUP2 PUSH2 0xB2D ADD MSTORE DUP2 DUP2 PUSH2 0xB6C ADD MSTORE PUSH2 0xBF0 ADD MSTORE PUSH2 0x19AA PUSH1 0x0 RETURN INVALID PUSH1 0x80 PUSH1 0x40 MSTORE CALLVALUE DUP1 ISZERO PUSH2 0x10 JUMPI PUSH1 0x0 DUP1 REVERT JUMPDEST POP PUSH1 0x4 CALLDATASIZE LT PUSH2 0x206 JUMPI PUSH1 0x0 CALLDATALOAD PUSH1 0xE0 SHR DUP1 PUSH4 0x8DA5CB5B GT PUSH2 0x11A JUMPI DUP1 PUSH4 0xAA4BDE28 GT PUSH2 0xAD JUMPI DUP1 PUSH4 0xC0A904A2 GT PUSH2 0x7C JUMPI DUP1 PUSH4 0xC0A904A2 EQ PUSH2 0x424 JUMPI DUP1 PUSH4 0xD9C5E6D7 EQ PUSH2 0x437 JUMPI DUP1 PUSH4 0xDD62ED3E EQ PUSH2 0x44A JUMPI DUP1 PUSH4 0xECDA10F5 EQ PUSH2 0x483 JUMPI DUP1 PUSH4 0xF684BB01 EQ PUSH2 0x4AA JUMPI PUSH1 0x0 DUP1 REVERT JUMPDEST DUP1 PUSH4 0xAA4BDE28 EQ PUSH2 0x3F6 JUMPI DUP1 PUSH4 0xACA62E00 EQ PUSH2 0x3FF JUMPI DUP1 PUSH4 0xBBA7D085 EQ PUSH2 0x407 JUMPI DUP1 PUSH4 0xBD6C350E EQ PUSH2 0x411 JUMPI PUSH1 0x0 DUP1 REVERT JUMPDEST DUP1 PUSH4 0x96BF3191 GT PUSH2 0xE9 JUMPI DUP1 PUSH4 0x96BF3191 EQ PUSH2 0x3C0 JUMPI DUP1 PUSH4 0x99B20EAF EQ PUSH2 0x3C8 JUMPI DUP1 PUSH4 0x9A12A0D8 EQ PUSH2 0x3D0 JUMPI DUP1 PUSH4 0xA9059CBB EQ PUSH2 0x3E3 JUMPI PUSH1 0x0 DUP1 REVERT JUMPDEST DUP1 PUSH4 0x8DA5CB5B EQ PUSH2 0x362 JUMPI DUP1 PUSH4 0x8FA43D03 EQ PUSH2 0x382 JUMPI DUP1 PUSH4 0x95D89B41 EQ PUSH2 0x38A JUMPI DUP1 PUSH4 0x969B8048 EQ PUSH2 0x392 JUMPI PUSH1 0x0 DUP1 REVERT JUMPDEST DUP1 PUSH4 0x49CEA162 GT PUSH2 0x19D JUMPI DUP1 PUSH4 0x774921F2 GT PUSH2 0x16C JUMPI DUP1 PUSH4 0x774921F2 EQ PUSH2 0x311 JUMPI DUP1 PUSH4 0x7D6E185A EQ PUSH2 0x31A JUMPI DUP1 PUSH4 0x8711A719 EQ PUSH2 0x339 JUMPI DUP1 PUSH4 0x8A8C523C EQ PUSH2 0x351 JUMPI DUP1 PUSH4 0x8C0B5E22 EQ PUSH2 0x359 JUMPI PUSH1 0x0 DUP1 REVERT JUMPDEST DUP1 PUSH4 0x49CEA162 EQ PUSH2 0x2B0 JUMPI DUP1 PUSH4 0x4ADA218B EQ PUSH2 0x2B8 JUMPI DUP1 PUSH4 0x5CCE86CD EQ PUSH2 0x2C5 JUMPI DUP1 PUSH4 0x70A08231 EQ PUSH2 0x2E8 JUMPI PUSH1 0x0 DUP1 REVERT JUMPDEST DUP1 PUSH4 0x18160DDD GT PUSH2 0x1D9 JUMPI DUP1 PUSH4 0x18160DDD EQ PUSH2 0x263 JUMPI DUP1 PUSH4 0x23B872DD EQ PUSH2 0x275 JUMPI DUP1 PUSH4 0x313CE567 EQ PUSH2 0x288 JUMPI DUP1 PUSH4 0x42966C68 EQ PUSH2 0x29D JUMPI PUSH1 0x0 DUP1 REVERT JUMPDEST DUP1 PUSH4 0x6FDDE03 EQ PUSH2 0x20B JUMPI DUP1 PUSH4 0x905F560 EQ PUSH2 0x229 JUMPI DUP1 PUSH4 0x95EA7B3 EQ PUSH2 0x246 JUMPI DUP1 PUSH4 0x139B8CBC EQ PUSH2 0x259 JUMPI JUMPDEST PUSH1 0x0 DUP1 REVERT JUMPDEST PUSH2 0x213 PUSH2 0x4B7 JUMP JUMPDEST PUSH1 0x40 MLOAD PUSH2 0x220 SWAP2 SWAP1 PUSH2 0x162E JUMP JUMPDEST PUSH1 0x40 MLOAD DUP1 SWAP2 SUB SWAP1 RETURN JUMPDEST PUSH1 0xB SLOAD PUSH2 0x236 SWAP1 PUSH1 0xFF AND DUP2 JUMP JUMPDEST PUSH1 0x40 MLOAD SWAP1 ISZERO ISZERO DUP2 MSTORE PUSH1 0x20 ADD PUSH2 0x220 JUMP JUMPDEST PUSH2 0x236 PUSH2 0x254 CALLDATASIZE PUSH1 0x4 PUSH2 0x1664 JUMP JUMPDEST PUSH2 0x549 JUMP JUMPDEST PUSH2 0x261 PUSH2 0x560 JUMP JUMPDEST STOP JUMPDEST PUSH1 0x2 SLOAD JUMPDEST PUSH1 0x40 MLOAD SWAP1 DUP2 MSTORE PUSH1 0x20 ADD PUSH2 0x220 JUMP JUMPDEST PUSH2 0x236 PUSH2 0x283 CALLDATASIZE PUSH1 0x4 PUSH2 0x168E JUMP JUMPDEST PUSH2 0x71E JUMP JUMPDEST PUSH1 0x5 SLOAD PUSH1 0x40 MLOAD PUSH1 0xFF SWAP1 SWAP2 AND DUP2 MSTORE PUSH1 0x20 ADD PUSH2 0x220 JUMP JUMPDEST PUSH2 0x261 PUSH2 0x2AB CALLDATASIZE PUSH1 0x4 PUSH2 0x16CB JUMP JUMPDEST PUSH2 0x7CD JUMP JUMPDEST PUSH2 0x236 PUSH2 0x900 JUMP JUMPDEST PUSH1 0x9 SLOAD PUSH2 0x236 SWAP1 PUSH1 0xFF AND DUP2 JUMP JUMPDEST PUSH2 0x236 PUSH2 0x2D3 CALLDATASIZE PUSH1 0x4 PUSH2 0x16E4 JUMP JUMPDEST PUSH1 0xA PUSH1 0x20 MSTORE PUSH1 0x0 SWAP1 DUP2 MSTORE PUSH1 0x40 SWAP1 KECCAK256 SLOAD PUSH1 0xFF AND DUP2 JUMP JUMPDEST PUSH2 0x267 PUSH2 0x2F6 CALLDATASIZE PUSH1 0x4 PUSH2 0x16E4 JUMP JUMPDEST PUSH1 0x1 PUSH1 0x1 PUSH1 0xA0 SHL SUB AND PUSH1 0x0 SWAP1 DUP2 MSTORE PUSH1 0x20 DUP2 SWAP1 MSTORE PUSH1 0x40 SWAP1 KECCAK256 SLOAD SWAP1 JUMP JUMPDEST PUSH2 0x267 PUSH1 0xC SLOAD DUP2 JUMP JUMPDEST PUSH2 0x322 PUSH2 0x90F JUMP JUMPDEST PUSH1 0x40 DUP1 MLOAD SWAP3 ISZERO ISZERO DUP4 MSTORE PUSH1 0x20 DUP4 ADD SWAP2 SWAP1 SWAP2 MSTORE ADD PUSH2 0x220 JUMP JUMPDEST PUSH2 0x341 PUSH2 0x94B JUMP JUMPDEST PUSH1 0x40 MLOAD PUSH2 0x220 SWAP5 SWAP4 SWAP3 SWAP2 SWAP1 PUSH2 0x16FF JUMP JUMPDEST PUSH2 0x261 PUSH2 0x9E0 JUMP JUMPDEST PUSH2 0x267 PUSH1 0x8 SLOAD DUP2 JUMP JUMPDEST PUSH2 0x36A PUSH2 0xAAB JUMP JUMPDEST PUSH1 0x40 MLOAD PUSH1 0x1 PUSH1 0x1 PUSH1 0xA0 SHL SUB SWAP1 SWAP2 AND DUP2 MSTORE PUSH1 0x20 ADD PUSH2 0x220 JUMP JUMPDEST PUSH2 0x267 PUSH2 0xAD5 JUMP JUMPDEST PUSH2 0x213 PUSH2 0xB5B JUMP JUMPDEST PUSH2 0x39A PUSH2 0xB6A JUMP JUMPDEST PUSH1 0x40 DUP1 MLOAD SWAP5 DUP6 MSTORE PUSH1 0x20 DUP6 ADD SWAP4 SWAP1 SWAP4 MSTORE SWAP1 ISZERO ISZERO SWAP2 DUP4 ADD SWAP2 SWAP1 SWAP2 MSTORE PUSH1 0x60 DUP3 ADD MSTORE PUSH1 0x80 ADD PUSH2 0x220 JUMP JUMPDEST PUSH2 0x236 PUSH2 0xBD8 JUMP JUMPDEST PUSH2 0x261 PUSH2 0xC1C JUMP JUMPDEST PUSH2 0x261 PUSH2 0x3DE CALLDATASIZE PUSH1 0x4 PUSH2 0x16CB JUMP JUMPDEST PUSH2 0xCE8 JUMP JUMPDEST PUSH2 0x236 PUSH2 0x3F1 CALLDATASIZE PUSH1 0x4 PUSH2 0x1664 JUMP JUMPDEST PUSH2 0xDB8 JUMP JUMPDEST PUSH2 0x267 PUSH1 0x7 SLOAD DUP2 JUMP JUMPDEST PUSH2 0x261 PUSH2 0xDC5 JUMP JUMPDEST PUSH2 0x267 PUSH3 0x4F1A00 DUP2 JUMP JUMPDEST PUSH2 0x261 PUSH2 0x41F CALLDATASIZE PUSH1 0x4 PUSH2 0x16CB JUMP JUMPDEST PUSH2 0xE24 JUMP JUMPDEST PUSH2 0x261 PUSH2 0x432 CALLDATASIZE PUSH1 0x4 PUSH2 0x1757 JUMP JUMPDEST PUSH2 0xEE8 JUMP JUMPDEST PUSH2 0x261 PUSH2 0x445 CALLDATASIZE PUSH1 0x4 PUSH2 0x16CB JUMP JUMPDEST PUSH2 0xF9B JUMP JUMPDEST PUSH2 0x267 PUSH2 0x458 CALLDATASIZE PUSH1 0x4 PUSH2 0x1793 JUMP JUMPDEST PUSH1 0x1 PUSH1 0x1 PUSH1 0xA0 SHL SUB SWAP2 DUP3 AND PUSH1 0x0 SWAP1 DUP2 MSTORE PUSH1 0x1 PUSH1 0x20 SWAP1 DUP2 MSTORE PUSH1 0x40 DUP1 DUP4 KECCAK256 SWAP4 SWAP1 SWAP5 AND DUP3 MSTORE SWAP2 SWAP1 SWAP2 MSTORE KECCAK256 SLOAD SWAP1 JUMP JUMPDEST PUSH2 0x267 PUSH32 0x0 DUP2 JUMP JUMPDEST PUSH1 0xD SLOAD PUSH2 0x236 SWAP1 PUSH1 0xFF AND DUP2 JUMP JUMPDEST PUSH1 0x60 PUSH1 0x3 DUP1 SLOAD PUSH2 0x4C6 SWAP1 PUSH2 0x17C6 JUMP JUMPDEST DUP1 PUSH1 0x1F ADD PUSH1 0x20 DUP1 SWAP2 DIV MUL PUSH1 0x20 ADD PUSH1 0x40 MLOAD SWAP1 DUP2 ADD PUSH1 0x40 MSTORE DUP1 SWAP3 SWAP2 SWAP1 DUP2 DUP2 MSTORE PUSH1 0x20 ADD DUP3 DUP1 SLOAD PUSH2 0x4F2 SWAP1 PUSH2 0x17C6 JUMP JUMPDEST DUP1 ISZERO PUSH2 0x53F JUMPI DUP1 PUSH1 0x1F LT PUSH2 0x514 JUMPI PUSH2 0x100 DUP1 DUP4 SLOAD DIV MUL DUP4 MSTORE SWAP2 PUSH1 0x20 ADD SWAP2 PUSH2 0x53F JUMP JUMPDEST DUP3 ADD SWAP2 SWAP1 PUSH1 0x0 MSTORE PUSH1 0x20 PUSH1 0x0 KECCAK256 SWAP1 JUMPDEST DUP2 SLOAD DUP2 MSTORE SWAP1 PUSH1 0x1 ADD SWAP1 PUSH1 0x20 ADD DUP1 DUP4 GT PUSH2 0x522 JUMPI DUP3 SWAP1 SUB PUSH1 0x1F AND DUP3 ADD SWAP2 JUMPDEST POP POP POP POP POP SWAP1 POP SWAP1 JUMP JUMPDEST PUSH1 0x0 PUSH2 0x556 CALLER DUP5 DUP5 PUSH2 0x10EB JUMP JUMPDEST POP PUSH1 0x1 JUMPDEST SWAP3 SWAP2 POP POP JUMP JUMPDEST PUSH1 0x2 PUSH1 0x6 SLOAD SUB PUSH2 0x5B7 JUMPI PUSH1 0x40 MLOAD PUSH3 0x461BCD PUSH1 0xE5 SHL DUP2 MSTORE PUSH1 0x20 PUSH1 0x4 DUP3 ADD MSTORE PUSH1 0x1F PUSH1 0x24 DUP3 ADD MSTORE PUSH32 0x5265656E7472616E637947756172643A207265656E7472616E742063616C6C00 PUSH1 0x44 DUP3 ADD MSTORE PUSH1 0x64 ADD JUMPDEST PUSH1 0x40 MLOAD DUP1 SWAP2 SUB SWAP1 REVERT JUMPDEST PUSH1 0x2 PUSH1 0x6 SSTORE PUSH2 0x5E9 PUSH3 0x4F1A00 PUSH32 0x0 PUSH2 0x1816 JUMP JUMPDEST TIMESTAMP LT ISZERO PUSH2 0x638 JUMPI PUSH1 0x40 MLOAD PUSH3 0x461BCD PUSH1 0xE5 SHL DUP2 MSTORE PUSH1 0x20 PUSH1 0x4 DUP3 ADD MSTORE PUSH1 0x1E PUSH1 0x24 DUP3 ADD MSTORE PUSH32 0x4175746F2D72656E6F756E63652074696D65206E6F7420726561636865640000 PUSH1 0x44 DUP3 ADD MSTORE PUSH1 0x64 ADD PUSH2 0x5AE JUMP JUMPDEST PUSH1 0xD SLOAD PUSH1 0xFF AND ISZERO PUSH2 0x684 JUMPI PUSH1 0x40 MLOAD PUSH3 0x461BCD PUSH1 0xE5 SHL DUP2 MSTORE PUSH1 0x20 PUSH1 0x4 DUP3 ADD MSTORE PUSH1 0x16 PUSH1 0x24 DUP3 ADD MSTORE PUSH22 0x105B1C9958591E48185D5D1BCB5C995B9BDD5B98D959 PUSH1 0x52 SHL PUSH1 0x44 DUP3 ADD MSTORE PUSH1 0x64 ADD PUSH2 0x5AE JUMP JUMPDEST PUSH1 0xD DUP1 SLOAD PUSH1 0x1 PUSH1 0xFF NOT SWAP1 SWAP2 AND OR SWAP1 SSTORE PUSH1 0x5 DUP1 SLOAD PUSH2 0x100 PUSH1 0x1 PUSH1 0xA8 SHL SUB NOT DUP2 AND SWAP1 SWAP2 SSTORE PUSH1 0x40 MLOAD PUSH2 0x100 SWAP1 SWAP2 DIV PUSH1 0x1 PUSH1 0x1 PUSH1 0xA0 SHL SUB AND SWAP1 PUSH1 0x0 SWAP1 DUP3 SWAP1 PUSH32 0x8BE0079C531659141344CD1FD0A4F28419497F9722A3DAAFE3B4186F6B6457E0 SWAP1 DUP4 SWAP1 LOG3 PUSH1 0x40 MLOAD TIMESTAMP DUP2 MSTORE PUSH32 0x745F8278FD0F921AA109AA7E8248084A162002F3BDE74AADA89120F653A564A1 SWAP1 PUSH1 0x20 ADD PUSH1 0x40 MLOAD DUP1 SWAP2 SUB SWAP1 LOG1 POP PUSH1 0x1 PUSH1 0x6 SSTORE JUMP JUMPDEST PUSH1 0x1 PUSH1 0x1 PUSH1 0xA0 SHL SUB DUP4 AND PUSH1 0x0 SWAP1 DUP2 MSTORE PUSH1 0x1 PUSH1 0x20 SWAP1 DUP2 MSTORE PUSH1 0x40 DUP1 DUP4 KECCAK256 CALLER DUP5 MSTORE SWAP1 SWAP2 MSTORE DUP2 KECCAK256 SLOAD DUP3 DUP2 LT ISZERO PUSH2 0x7A3 JUMPI PUSH1 0x40 MLOAD PUSH3 0x461BCD PUSH1 0xE5 SHL DUP2 MSTORE PUSH1 0x20 PUSH1 0x4 DUP3 ADD MSTORE PUSH1 0x28 PUSH1 0x24 DUP3 ADD MSTORE PUSH32 0x45524332303A207472616E7366657220616D6F756E7420657863656564732061 PUSH1 0x44 DUP3 ADD MSTORE PUSH8 0x6C6C6F77616E6365 PUSH1 0xC0 SHL PUSH1 0x64 DUP3 ADD MSTORE PUSH1 0x84 ADD PUSH2 0x5AE JUMP JUMPDEST PUSH2 0x7AE DUP6 DUP6 DUP6 PUSH2 0x1210 JUMP JUMPDEST PUSH2 0x7C2 DUP6 CALLER PUSH2 0x7BD DUP7 DUP6 PUSH2 0x1829 JUMP JUMPDEST PUSH2 0x10EB JUMP JUMPDEST POP PUSH1 0x1 SWAP5 SWAP4 POP POP POP POP JUMP JUMPDEST PUSH1 0x2 PUSH1 0x6 SLOAD SUB PUSH2 0x81F JUMPI PUSH1 0x40 MLOAD PUSH3 0x461BCD PUSH1 0xE5 SHL DUP2 MSTORE PUSH1 0x20 PUSH1 0x4 DUP3 ADD MSTORE PUSH1 0x1F PUSH1 0x24 DUP3 ADD MSTORE PUSH32 0x5265656E7472616E637947756172643A207265656E7472616E742063616C6C00 PUSH1 0x44 DUP3 ADD MSTORE PUSH1 0x64 ADD PUSH2 0x5AE JUMP JUMPDEST PUSH1 0x2 PUSH1 0x6 SSTORE CALLER PUSH1 0x0 SWAP1 DUP2 MSTORE PUSH1 0x20 DUP2 SWAP1 MSTORE PUSH1 0x40 SWAP1 KECCAK256 SLOAD DUP2 GT ISZERO PUSH2 0x883 JUMPI PUSH1 0x40 MLOAD PUSH3 0x461BCD PUSH1 0xE5 SHL DUP2 MSTORE PUSH1 0x20 PUSH1 0x4 DUP3 ADD MSTORE PUSH1 0x1B PUSH1 0x24 DUP3 ADD MSTORE PUSH32 0x4275726E20616D6F756E7420657863656564732062616C616E63650000000000 PUSH1 0x44 DUP3 ADD MSTORE PUSH1 0x64 ADD PUSH2 0x5AE JUMP JUMPDEST CALLER PUSH1 0x0 SWAP1 DUP2 MSTORE PUSH1 0x20 DUP2 SWAP1 MSTORE PUSH1 0x40 DUP2 KECCAK256 DUP1 SLOAD DUP4 SWAP3 SWAP1 PUSH2 0x8A2 SWAP1 DUP5 SWAP1 PUSH2 0x1829 JUMP JUMPDEST SWAP3 POP POP DUP2 SWAP1 SSTORE POP DUP1 PUSH1 0x2 PUSH1 0x0 DUP3 DUP3 SLOAD PUSH2 0x8BB SWAP2 SWAP1 PUSH2 0x1829 JUMP JUMPDEST SWAP1 SWAP2 SSTORE POP POP PUSH1 0x40 MLOAD DUP2 DUP2 MSTORE PUSH1 0x0 SWAP1 CALLER SWAP1 PUSH32 0xDDF252AD1BE2C89B69C2B068FC378DAA952BA7F163C4A11628F55A4DF523B3EF SWAP1 PUSH1 0x20 ADD PUSH1 0x40 MLOAD DUP1 SWAP2 SUB SWAP1 LOG3 POP PUSH1 0x1 PUSH1 0x6 SSTORE JUMP JUMPDEST PUSH1 0x0 PUSH2 0x90A PUSH2 0xBD8 JUMP JUMPDEST SWAP1 POP SWAP1 JUMP JUMPDEST PUSH1 0xB SLOAD PUSH1 0x0 SWAP1 DUP2 SWAP1 PUSH1 0xFF AND DUP1 ISZERO PUSH2 0x928 JUMPI POP PUSH1 0xC SLOAD TIMESTAMP GT ISZERO JUMPDEST SWAP2 POP DUP2 ISZERO PUSH2 0x944 JUMPI TIMESTAMP PUSH1 0xC SLOAD PUSH2 0x93E SWAP2 SWAP1 PUSH2 0x1829 JUMP JUMPDEST SWAP1 POP SWAP1 SWAP2 JUMP JUMPDEST POP PUSH1 0x0 SWAP1 SWAP2 JUMP JUMPDEST PUSH1 0x60 DUP1 PUSH1 0x60 DUP1 PUSH1 0x40 MLOAD DUP1 PUSH1 0x60 ADD PUSH1 0x40 MSTORE DUP1 PUSH1 0x2C DUP2 MSTORE PUSH1 0x20 ADD PUSH2 0x1921 PUSH1 0x2C SWAP2 CODECOPY SWAP4 POP PUSH1 0x40 MLOAD DUP1 PUSH1 0x60 ADD PUSH1 0x40 MSTORE DUP1 PUSH1 0x35 DUP2 MSTORE PUSH1 0x20 ADD PUSH2 0x18EC PUSH1 0x35 SWAP2 CODECOPY SWAP3 POP PUSH1 0x40 MLOAD DUP1 PUSH1 0x40 ADD PUSH1 0x40 MSTORE DUP1 PUSH1 0x1E DUP2 MSTORE PUSH1 0x20 ADD PUSH32 0x556C747261204C6F77202D204175746F2D646563656E7472616C697A65640000 DUP2 MSTORE POP SWAP2 POP PUSH1 0x40 MLOAD DUP1 PUSH1 0x60 ADD PUSH1 0x40 MSTORE DUP1 PUSH1 0x28 DUP2 MSTORE PUSH1 0x20 ADD PUSH2 0x194D PUSH1 0x28 SWAP2 CODECOPY SWAP1 POP SWAP1 SWAP2 SWAP3 SWAP4 JUMP JUMPDEST PUSH2 0x9E8 PUSH2 0xBD8 JUMP JUMPDEST ISZERO DUP1 ISZERO PUSH2 0xA04 JUMPI POP PUSH1 0x5 SLOAD PUSH2 0x100 SWAP1 DIV PUSH1 0x1 PUSH1 0x1 PUSH1 0xA0 SHL SUB AND CALLER EQ JUMPDEST PUSH2 0xA20 JUMPI PUSH1 0x40 MLOAD PUSH3 0x461BCD PUSH1 0xE5 SHL DUP2 MSTORE PUSH1 0x4 ADD PUSH2 0x5AE SWAP1 PUSH2 0x183C JUMP JUMPDEST PUSH1 0x9 SLOAD PUSH1 0xFF AND ISZERO PUSH2 0xA73 JUMPI PUSH1 0x40 MLOAD PUSH3 0x461BCD PUSH1 0xE5 SHL DUP2 MSTORE PUSH1 0x20 PUSH1 0x4 DUP3 ADD MSTORE PUSH1 0x17 PUSH1 0x24 DUP3 ADD MSTORE PUSH32 0x54726164696E6720616C726561647920656E61626C6564000000000000000000 PUSH1 0x44 DUP3 ADD MSTORE PUSH1 0x64 ADD PUSH2 0x5AE JUMP JUMPDEST PUSH1 0x9 DUP1 SLOAD PUSH1 0xFF NOT AND PUSH1 0x1 OR SWAP1 SSTORE PUSH1 0x40 MLOAD PUSH32 0x799663458A5EF2936F7FA0C99B3336C69C25890F82974F04E811E5BB359186C7 SWAP1 PUSH1 0x0 SWAP1 LOG1 JUMP JUMPDEST PUSH1 0x0 PUSH2 0xAB5 PUSH2 0xBD8 JUMP JUMPDEST ISZERO PUSH2 0xAC0 JUMPI POP PUSH1 0x0 SWAP1 JUMP JUMPDEST POP PUSH1 0x5 SLOAD PUSH2 0x100 SWAP1 DIV PUSH1 0x1 PUSH1 0x1 PUSH1 0xA0 SHL SUB AND SWAP1 JUMP JUMPDEST PUSH1 0x0 PUSH2 0xADF PUSH2 0xBD8 JUMP JUMPDEST ISZERO PUSH2 0xAEA JUMPI POP PUSH1 0x0 SWAP1 JUMP JUMPDEST PUSH2 0xB17 PUSH3 0x4F1A00 PUSH32 0x0 PUSH2 0x1816 JUMP JUMPDEST TIMESTAMP LT PUSH2 0xB23 JUMPI POP PUSH1 0x0 SWAP1 JUMP JUMPDEST TIMESTAMP PUSH2 0xB51 PUSH3 0x4F1A00 PUSH32 0x0 PUSH2 0x1816 JUMP JUMPDEST PUSH2 0x90A SWAP2 SWAP1 PUSH2 0x1829 JUMP JUMPDEST PUSH1 0x60 PUSH1 0x4 DUP1 SLOAD PUSH2 0x4C6 SWAP1 PUSH2 0x17C6 JUMP JUMPDEST PUSH32 0x0 PUSH1 0x0 DUP1 DUP1 PUSH2 0xB9C PUSH3 0x4F1A00 DUP6 PUSH2 0x1816 JUMP JUMPDEST SWAP3 POP PUSH2 0xBA6 PUSH2 0xBD8 JUMP JUMPDEST SWAP2 POP DUP2 ISZERO PUSH2 0xBB6 JUMPI POP PUSH1 0x0 PUSH2 0xBD2 JUMP JUMPDEST DUP3 TIMESTAMP LT PUSH2 0xBC5 JUMPI POP PUSH1 0x0 PUSH2 0xBD2 JUMP JUMPDEST PUSH2 0xBCF TIMESTAMP DUP5 PUSH2 0x1829 JUMP JUMPDEST SWAP1 POP JUMPDEST SWAP1 SWAP2 SWAP3 SWAP4 JUMP JUMPDEST PUSH1 0xD SLOAD PUSH1 0x0 SWAP1 PUSH1 0xFF AND DUP1 PUSH2 0x90A JUMPI POP PUSH2 0xC14 PUSH3 0x4F1A00 PUSH32 0x0 PUSH2 0x1816 JUMP JUMPDEST TIMESTAMP LT ISZERO SWAP1 POP SWAP1 JUMP JUMPDEST PUSH2 0xC24 PUSH2 0xBD8 JUMP JUMPDEST ISZERO DUP1 ISZERO PUSH2 0xC40 JUMPI POP PUSH1 0x5 SLOAD PUSH2 0x100 SWAP1 DIV PUSH1 0x1 PUSH1 0x1 PUSH1 0xA0 SHL SUB AND CALLER EQ JUMPDEST PUSH2 0xC5C JUMPI PUSH1 0x40 MLOAD PUSH3 0x461BCD PUSH1 0xE5 SHL DUP2 MSTORE PUSH1 0x4 ADD PUSH2 0x5AE SWAP1 PUSH2 0x183C JUMP JUMPDEST PUSH1 0xB SLOAD PUSH1 0xFF AND PUSH2 0xCAE JUMPI PUSH1 0x40 MLOAD PUSH3 0x461BCD PUSH1 0xE5 SHL DUP2 MSTORE PUSH1 0x20 PUSH1 0x4 DUP3 ADD MSTORE PUSH1 0x19 PUSH1 0x24 DUP3 ADD MSTORE PUSH32 0x456D657267656E6379206D6F6465206E6F742061637469766500000000000000 PUSH1 0x44 DUP3 ADD MSTORE PUSH1 0x64 ADD PUSH2 0x5AE JUMP JUMPDEST PUSH1 0xB DUP1 SLOAD PUSH1 0xFF NOT AND SWAP1 SSTORE PUSH1 0x0 PUSH1 0xC DUP2 SWAP1 SSTORE PUSH1 0x40 MLOAD PUSH32 0x70B9DCACEB756943AC1A4F48B8DF9EA82FBB012B87E405CBA4ED77D1DED0DF41 SWAP2 SWAP1 LOG1 JUMP JUMPDEST PUSH2 0xCF0 PUSH2 0xBD8 JUMP JUMPDEST ISZERO DUP1 ISZERO PUSH2 0xD0C JUMPI POP PUSH1 0x5 SLOAD PUSH2 0x100 SWAP1 DIV PUSH1 0x1 PUSH1 0x1 PUSH1 0xA0 SHL SUB AND CALLER EQ JUMPDEST PUSH2 0xD28 JUMPI PUSH1 0x40 MLOAD PUSH3 0x461BCD PUSH1 0xE5 SHL DUP2 MSTORE PUSH1 0x4 ADD PUSH2 0x5AE SWAP1 PUSH2 0x183C JUMP JUMPDEST PUSH1 0x7 SLOAD DUP2 GT PUSH2 0xD85 JUMPI PUSH1 0x40 MLOAD PUSH3 0x461BCD PUSH1 0xE5 SHL DUP2 MSTORE PUSH1 0x20 PUSH1 0x4 DUP3 ADD MSTORE PUSH1 0x23 PUSH1 0x24 DUP3 ADD MSTORE PUSH32 0x43616E206F6E6C7920696E637265617365206D61782077616C6C657420616D6F PUSH1 0x44 DUP3 ADD MSTORE PUSH3 0x1D5B9D PUSH1 0xEA SHL PUSH1 0x64 DUP3 ADD MSTORE PUSH1 0x84 ADD PUSH2 0x5AE JUMP JUMPDEST PUSH1 0xA PUSH1 0x2 SLOAD PUSH2 0xD94 SWAP2 SWAP1 PUSH2 0x1871 JUMP JUMPDEST DUP2 GT ISZERO PUSH2 0xDB3 JUMPI PUSH1 0x40 MLOAD PUSH3 0x461BCD PUSH1 0xE5 SHL DUP2 MSTORE PUSH1 0x4 ADD PUSH2 0x5AE SWAP1 PUSH2 0x1893 JUMP JUMPDEST PUSH1 0x7 SSTORE JUMP JUMPDEST PUSH1 0x0 PUSH2 0x556 CALLER DUP5 DUP5 PUSH2 0x1210 JUMP JUMPDEST PUSH1 0xB SLOAD PUSH1 0xFF AND DUP1 ISZERO PUSH2 0xDD8 JUMPI POP PUSH1 0xC SLOAD TIMESTAMP GT JUMPDEST PUSH2 0xCAE JUMPI PUSH1 0x40 MLOAD PUSH3 0x461BCD PUSH1 0xE5 SHL DUP2 MSTORE PUSH1 0x20 PUSH1 0x4 DUP3 ADD MSTORE PUSH1 0x1B PUSH1 0x24 DUP3 ADD MSTORE PUSH32 0x456D657267656E6379206D6F6465207374696C6C206163746976650000000000 PUSH1 0x44 DUP3 ADD MSTORE PUSH1 0x64 ADD PUSH2 0x5AE JUMP JUMPDEST PUSH2 0xE2C PUSH2 0xBD8 JUMP JUMPDEST ISZERO DUP1 ISZERO PUSH2 0xE48 JUMPI POP PUSH1 0x5 SLOAD PUSH2 0x100 SWAP1 DIV PUSH1 0x1 PUSH1 0x1 PUSH1 0xA0 SHL SUB AND CALLER EQ JUMPDEST PUSH2 0xE64 JUMPI PUSH1 0x40 MLOAD PUSH3 0x461BCD PUSH1 0xE5 SHL DUP2 MSTORE PUSH1 0x4 ADD PUSH2 0x5AE SWAP1 PUSH2 0x183C JUMP JUMPDEST PUSH1 0x8 SLOAD DUP2 GT PUSH2 0xEB5 JUMPI PUSH1 0x40 MLOAD PUSH3 0x461BCD PUSH1 0xE5 SHL DUP2 MSTORE PUSH1 0x20 PUSH1 0x4 DUP3 ADD MSTORE PUSH1 0x1F PUSH1 0x24 DUP3 ADD MSTORE PUSH32 0x43616E206F6E6C7920696E637265617365206D617820747820616D6F756E7400 PUSH1 0x44 DUP3 ADD MSTORE PUSH1 0x64 ADD PUSH2 0x5AE JUMP JUMPDEST PUSH1 0xA PUSH1 0x2 SLOAD PUSH2 0xEC4 SWAP2 SWAP1 PUSH2 0x1871 JUMP JUMPDEST DUP2 GT ISZERO PUSH2 0xEE3 JUMPI PUSH1 0x40 MLOAD PUSH3 0x461BCD PUSH1 0xE5 SHL DUP2 MSTORE PUSH1 0x4 ADD PUSH2 0x5AE SWAP1 PUSH2 0x1893 JUMP JUMPDEST PUSH1 0x8 SSTORE JUMP JUMPDEST PUSH2 0xEF0 PUSH2 0xBD8 JUMP JUMPDEST ISZERO DUP1 ISZERO PUSH2 0xF0C JUMPI POP PUSH1 0x5 SLOAD PUSH2 0x100 SWAP1 DIV PUSH1 0x1 PUSH1 0x1 PUSH1 0xA0 SHL SUB AND CALLER EQ JUMPDEST PUSH2 0xF28 JUMPI PUSH1 0x40 MLOAD PUSH3 0x461BCD PUSH1 0xE5 SHL DUP2 MSTORE PUSH1 0x4 ADD PUSH2 0x5AE SWAP1 PUSH2 0x183C JUMP JUMPDEST PUSH1 0x1 PUSH1 0x1 PUSH1 0xA0 SHL SUB DUP3 AND PUSH2 0xF70 JUMPI PUSH1 0x40 MLOAD PUSH3 0x461BCD PUSH1 0xE5 SHL DUP2 MSTORE PUSH1 0x20 PUSH1 0x4 DUP3 ADD MSTORE PUSH1 0xF PUSH1 0x24 DUP3 ADD MSTORE PUSH15 0x496E76616C69642061646472657373 PUSH1 0x88 SHL PUSH1 0x44 DUP3 ADD MSTORE PUSH1 0x64 ADD PUSH2 0x5AE JUMP JUMPDEST PUSH1 0x1 PUSH1 0x1 PUSH1 0xA0 SHL SUB SWAP2 SWAP1 SWAP2 AND PUSH1 0x0 SWAP1 DUP2 MSTORE PUSH1 0xA PUSH1 0x20 MSTORE PUSH1 0x40 SWAP1 KECCAK256 DUP1 SLOAD PUSH1 0xFF NOT AND SWAP2 ISZERO ISZERO SWAP2 SWAP1 SWAP2 OR SWAP1 SSTORE JUMP JUMPDEST PUSH2 0xFA3 PUSH2 0xBD8 JUMP JUMPDEST ISZERO DUP1 ISZERO PUSH2 0xFBF JUMPI POP PUSH1 0x5 SLOAD PUSH2 0x100 SWAP1 DIV PUSH1 0x1 PUSH1 0x1 PUSH1 0xA0 SHL SUB AND CALLER EQ JUMPDEST PUSH2 0xFDB JUMPI PUSH1 0x40 MLOAD PUSH3 0x461BCD PUSH1 0xE5 SHL DUP2 MSTORE PUSH1 0x4 ADD PUSH2 0x5AE SWAP1 PUSH2 0x183C JUMP JUMPDEST PUSH1 0x48 DUP2 GT ISZERO PUSH2 0x103A JUMPI PUSH1 0x40 MLOAD PUSH3 0x461BCD PUSH1 0xE5 SHL DUP2 MSTORE PUSH1 0x20 PUSH1 0x4 DUP3 ADD MSTORE PUSH1 0x25 PUSH1 0x24 DUP3 ADD MSTORE PUSH32 0x456D657267656E6379206D6F64652063616E6E6F742065786365656420373220 PUSH1 0x44 DUP3 ADD MSTORE PUSH5 0x686F757273 PUSH1 0xD8 SHL PUSH1 0x64 DUP3 ADD MSTORE PUSH1 0x84 ADD PUSH2 0x5AE JUMP JUMPDEST PUSH1 0xB SLOAD PUSH1 0xFF AND ISZERO PUSH2 0x108D JUMPI PUSH1 0x40 MLOAD PUSH3 0x461BCD PUSH1 0xE5 SHL DUP2 MSTORE PUSH1 0x20 PUSH1 0x4 DUP3 ADD MSTORE PUSH1 0x1D PUSH1 0x24 DUP3 ADD MSTORE PUSH32 0x456D657267656E6379206D6F646520616C726561647920616374697665000000 PUSH1 0x44 DUP3 ADD MSTORE PUSH1 0x64 ADD PUSH2 0x5AE JUMP JUMPDEST PUSH1 0xB DUP1 SLOAD PUSH1 0xFF NOT AND PUSH1 0x1 OR SWAP1 SSTORE PUSH2 0x10A6 DUP2 PUSH2 0xE10 PUSH2 0x18D4 JUMP JUMPDEST PUSH2 0x10B0 SWAP1 TIMESTAMP PUSH2 0x1816 JUMP JUMPDEST PUSH1 0xC DUP2 SWAP1 SSTORE PUSH1 0x40 MLOAD SWAP1 DUP2 MSTORE PUSH32 0x5FA9ABB83376468762D4533D9CD0A8F21EDF0033FA06B47347578FB235A92EDC SWAP1 PUSH1 0x20 ADD PUSH1 0x40 MLOAD DUP1 SWAP2 SUB SWAP1 LOG1 POP JUMP JUMPDEST PUSH1 0x1 PUSH1 0x1 PUSH1 0xA0 SHL SUB DUP4 AND PUSH2 0x114D JUMPI PUSH1 0x40 MLOAD PUSH3 0x461BCD PUSH1 0xE5 SHL DUP2 MSTORE PUSH1 0x20 PUSH1 0x4 DUP3 ADD MSTORE PUSH1 0x24 DUP1 DUP3 ADD MSTORE PUSH32 0x45524332303A20617070726F76652066726F6D20746865207A65726F20616464 PUSH1 0x44 DUP3 ADD MSTORE PUSH4 0x72657373 PUSH1 0xE0 SHL PUSH1 0x64 DUP3 ADD MSTORE PUSH1 0x84 ADD PUSH2 0x5AE JUMP JUMPDEST PUSH1 0x1 PUSH1 0x1 PUSH1 0xA0 SHL SUB DUP3 AND PUSH2 0x11AE JUMPI PUSH1 0x40 MLOAD PUSH3 0x461BCD PUSH1 0xE5 SHL DUP2 MSTORE PUSH1 0x20 PUSH1 0x4 DUP3 ADD MSTORE PUSH1 0x22 PUSH1 0x24 DUP3 ADD MSTORE PUSH32 0x45524332303A20617070726F766520746F20746865207A65726F206164647265 PUSH1 0x44 DUP3 ADD MSTORE PUSH2 0x7373 PUSH1 0xF0 SHL PUSH1 0x64 DUP3 ADD MSTORE PUSH1 0x84 ADD PUSH2 0x5AE JUMP JUMPDEST PUSH1 0x1 PUSH1 0x1 PUSH1 0xA0 SHL SUB DUP4 DUP2 AND PUSH1 0x0 DUP2 DUP2 MSTORE PUSH1 0x1 PUSH1 0x20 SWAP1 DUP2 MSTORE PUSH1 0x40 DUP1 DUP4 KECCAK256 SWAP5 DUP8 AND DUP1 DUP5 MSTORE SWAP5 DUP3 MSTORE SWAP2 DUP3 SWAP1 KECCAK256 DUP6 SWAP1 SSTORE SWAP1 MLOAD DUP5 DUP2 MSTORE PUSH32 0x8C5BE1E5EBEC7D5BD14F71427D1E84F3DD0314C0F7B2291E5B200AC8C7C3B925 SWAP2 ADD JUMPDEST PUSH1 0x40 MLOAD DUP1 SWAP2 SUB SWAP1 LOG3 POP POP POP JUMP JUMPDEST PUSH1 0xB SLOAD PUSH1 0xFF AND ISZERO DUP1 PUSH2 0x1223 JUMPI POP PUSH1 0xC SLOAD TIMESTAMP GT JUMPDEST PUSH2 0x1267 JUMPI PUSH1 0x40 MLOAD PUSH3 0x461BCD PUSH1 0xE5 SHL DUP2 MSTORE PUSH1 0x20 PUSH1 0x4 DUP3 ADD MSTORE PUSH1 0x15 PUSH1 0x24 DUP3 ADD MSTORE PUSH21 0x456D657267656E6379206D6F646520616374697665 PUSH1 0x58 SHL PUSH1 0x44 DUP3 ADD MSTORE PUSH1 0x64 ADD PUSH2 0x5AE JUMP JUMPDEST PUSH1 0x1 PUSH1 0x1 PUSH1 0xA0 SHL SUB DUP4 AND PUSH2 0x12CB JUMPI PUSH1 0x40 MLOAD PUSH3 0x461BCD PUSH1 0xE5 SHL DUP2 MSTORE PUSH1 0x20 PUSH1 0x4 DUP3 ADD MSTORE PUSH1 0x25 PUSH1 0x24 DUP3 ADD MSTORE PUSH32 0x45524332303A207472616E736665722066726F6D20746865207A65726F206164 PUSH1 0x44 DUP3 ADD MSTORE PUSH5 0x6472657373 PUSH1 0xD8 SHL PUSH1 0x64 DUP3 ADD MSTORE PUSH1 0x84 ADD PUSH2 0x5AE JUMP JUMPDEST PUSH1 0x1 PUSH1 0x1 PUSH1 0xA0 SHL SUB DUP3 AND PUSH2 0x132D JUMPI PUSH1 0x40 MLOAD PUSH3 0x461BCD PUSH1 0xE5 SHL DUP2 MSTORE PUSH1 0x20 PUSH1 0x4 DUP3 ADD MSTORE PUSH1 0x23 PUSH1 0x24 DUP3 ADD MSTORE PUSH32 0x45524332303A207472616E7366657220746F20746865207A65726F2061646472 PUSH1 0x44 DUP3 ADD MSTORE PUSH3 0x657373 PUSH1 0xE8 SHL PUSH1 0x64 DUP3 ADD MSTORE PUSH1 0x84 ADD PUSH2 0x5AE JUMP JUMPDEST PUSH1 0x1 PUSH1 0x1 PUSH1 0xA0 SHL SUB DUP4 AND PUSH1 0x0 SWAP1 DUP2 MSTORE PUSH1 0x20 DUP2 SWAP1 MSTORE PUSH1 0x40 SWAP1 KECCAK256 SLOAD DUP2 GT ISZERO PUSH2 0x13A4 JUMPI PUSH1 0x40 MLOAD PUSH3 0x461BCD PUSH1 0xE5 SHL DUP2 MSTORE PUSH1 0x20 PUSH1 0x4 DUP3 ADD MSTORE PUSH1 0x26 PUSH1 0x24 DUP3 ADD MSTORE PUSH32 0x45524332303A207472616E7366657220616D6F756E7420657863656564732062 PUSH1 0x44 DUP3 ADD MSTORE PUSH6 0x616C616E6365 PUSH1 0xD0 SHL PUSH1 0x64 DUP3 ADD MSTORE PUSH1 0x84 ADD PUSH2 0x5AE JUMP JUMPDEST PUSH1 0x9 SLOAD PUSH1 0xFF AND PUSH2 0x1439 JUMPI PUSH1 0x1 PUSH1 0x1 PUSH1 0xA0 SHL SUB DUP4 AND PUSH1 0x0 SWAP1 DUP2 MSTORE PUSH1 0xA PUSH1 0x20 MSTORE PUSH1 0x40 SWAP1 KECCAK256 SLOAD PUSH1 0xFF AND DUP1 PUSH2 0x13ED JUMPI POP PUSH1 0x1 PUSH1 0x1 PUSH1 0xA0 SHL SUB DUP3 AND PUSH1 0x0 SWAP1 DUP2 MSTORE PUSH1 0xA PUSH1 0x20 MSTORE PUSH1 0x40 SWAP1 KECCAK256 SLOAD PUSH1 0xFF AND JUMPDEST PUSH2 0x1439 JUMPI PUSH1 0x40 MLOAD PUSH3 0x461BCD PUSH1 0xE5 SHL DUP2 MSTORE PUSH1 0x20 PUSH1 0x4 DUP3 ADD MSTORE PUSH1 0x17 PUSH1 0x24 DUP3 ADD MSTORE PUSH32 0x54726164696E67206E6F742079657420656E61626C6564000000000000000000 PUSH1 0x44 DUP3 ADD MSTORE PUSH1 0x64 ADD PUSH2 0x5AE JUMP JUMPDEST PUSH1 0x1 PUSH1 0x1 PUSH1 0xA0 SHL SUB DUP4 AND PUSH1 0x0 SWAP1 DUP2 MSTORE PUSH1 0xA PUSH1 0x20 MSTORE PUSH1 0x40 SWAP1 KECCAK256 SLOAD PUSH1 0xFF AND ISZERO DUP1 ISZERO PUSH2 0x147B JUMPI POP PUSH1 0x1 PUSH1 0x1 PUSH1 0xA0 SHL SUB DUP3 AND PUSH1 0x0 SWAP1 DUP2 MSTORE PUSH1 0xA PUSH1 0x20 MSTORE PUSH1 0x40 SWAP1 KECCAK256 SLOAD PUSH1 0xFF AND ISZERO JUMPDEST ISZERO PUSH2 0x1547 JUMPI PUSH1 0x8 SLOAD DUP2 GT ISZERO PUSH2 0x14D2 JUMPI PUSH1 0x40 MLOAD PUSH3 0x461BCD PUSH1 0xE5 SHL DUP2 MSTORE PUSH1 0x20 PUSH1 0x4 DUP3 ADD MSTORE PUSH1 0x1F PUSH1 0x24 DUP3 ADD MSTORE PUSH32 0x5472616E7366657220616D6F756E742065786365656473206D6178696D756D00 PUSH1 0x44 DUP3 ADD MSTORE PUSH1 0x64 ADD PUSH2 0x5AE JUMP JUMPDEST PUSH1 0x7 SLOAD PUSH1 0x1 PUSH1 0x1 PUSH1 0xA0 SHL SUB DUP4 AND PUSH1 0x0 SWAP1 DUP2 MSTORE PUSH1 0x20 DUP2 SWAP1 MSTORE PUSH1 0x40 SWAP1 KECCAK256 SLOAD PUSH2 0x14F9 SWAP1 DUP4 SWAP1 PUSH2 0x1816 JUMP JUMPDEST GT ISZERO PUSH2 0x1547 JUMPI PUSH1 0x40 MLOAD PUSH3 0x461BCD PUSH1 0xE5 SHL DUP2 MSTORE PUSH1 0x20 PUSH1 0x4 DUP3 ADD MSTORE PUSH1 0x1B PUSH1 0x24 DUP3 ADD MSTORE PUSH32 0x57616C6C657420776F756C6420657863656564206D6178696D756D0000000000 PUSH1 0x44 DUP3 ADD MSTORE PUSH1 0x64 ADD PUSH2 0x5AE JUMP JUMPDEST PUSH1 0x1 PUSH1 0x1 PUSH1 0xA0 SHL SUB DUP4 AND PUSH1 0x0 SWAP1 DUP2 MSTORE PUSH1 0x20 DUP2 SWAP1 MSTORE PUSH1 0x40 DUP2 KECCAK256 DUP1 SLOAD DUP4 SWAP3 SWAP1 PUSH2 0x156F SWAP1 DUP5 SWAP1 PUSH2 0x1829 JUMP JUMPDEST SWAP1 SWAP2 SSTORE POP POP PUSH1 0x1 PUSH1 0x1 PUSH1 0xA0 SHL SUB DUP3 AND PUSH1 0x0 SWAP1 DUP2 MSTORE PUSH1 0x20 DUP2 SWAP1 MSTORE PUSH1 0x40 DUP2 KECCAK256 DUP1 SLOAD DUP4 SWAP3 SWAP1 PUSH2 0x159C SWAP1 DUP5 SWAP1 PUSH2 0x1816 JUMP JUMPDEST SWAP3 POP POP DUP2 SWAP1 SSTORE POP DUP2 PUSH1 0x1 PUSH1 0x1 PUSH1 0xA0 SHL SUB AND DUP4 PUSH1 0x1 PUSH1 0x1 PUSH1 0xA0 SHL SUB AND PUSH32 0xDDF252AD1BE2C89B69C2B068FC378DAA952BA7F163C4A11628F55A4DF523B3EF DUP4 PUSH1 0x40 MLOAD PUSH2 0x1203 SWAP2 DUP2 MSTORE PUSH1 0x20 ADD SWAP1 JUMP JUMPDEST PUSH1 0x0 DUP2 MLOAD DUP1 DUP5 MSTORE PUSH1 0x0 JUMPDEST DUP2 DUP2 LT ISZERO PUSH2 0x160E JUMPI PUSH1 0x20 DUP2 DUP6 ADD DUP2 ADD MLOAD DUP7 DUP4 ADD DUP3 ADD MSTORE ADD PUSH2 0x15F2 JUMP JUMPDEST POP PUSH1 0x0 PUSH1 0x20 DUP3 DUP7 ADD ADD MSTORE PUSH1 0x20 PUSH1 0x1F NOT PUSH1 0x1F DUP4 ADD AND DUP6 ADD ADD SWAP2 POP POP SWAP3 SWAP2 POP POP JUMP JUMPDEST PUSH1 0x20 DUP2 MSTORE PUSH1 0x0 PUSH2 0x1641 PUSH1 0x20 DUP4 ADD DUP5 PUSH2 0x15E8 JUMP JUMPDEST SWAP4 SWAP3 POP POP POP JUMP JUMPDEST DUP1 CALLDATALOAD PUSH1 0x1 PUSH1 0x1 PUSH1 0xA0 SHL SUB DUP2 AND DUP2 EQ PUSH2 0x165F JUMPI PUSH1 0x0 DUP1 REVERT JUMPDEST SWAP2 SWAP1 POP JUMP JUMPDEST PUSH1 0x0 DUP1 PUSH1 0x40 DUP4 DUP6 SUB SLT ISZERO PUSH2 0x1677 JUMPI PUSH1 0x0 DUP1 REVERT JUMPDEST PUSH2 0x1680 DUP4 PUSH2 0x1648 JUMP JUMPDEST SWAP5 PUSH1 0x20 SWAP4 SWAP1 SWAP4 ADD CALLDATALOAD SWAP4 POP POP POP JUMP JUMPDEST PUSH1 0x0 DUP1 PUSH1 0x0 PUSH1 0x60 DUP5 DUP7 SUB SLT ISZERO PUSH2 0x16A3 JUMPI PUSH1 0x0 DUP1 REVERT JUMPDEST PUSH2 0x16AC DUP5 PUSH2 0x1648 JUMP JUMPDEST SWAP3 POP PUSH2 0x16BA PUSH1 0x20 DUP6 ADD PUSH2 0x1648 JUMP JUMPDEST SWAP3 SWAP6 SWAP3 SWAP5 POP POP POP PUSH1 0x40 SWAP2 SWAP1 SWAP2 ADD CALLDATALOAD SWAP1 JUMP JUMPDEST PUSH1 0x0 PUSH1 0x20 DUP3 DUP5 SUB SLT ISZERO PUSH2 0x16DD JUMPI PUSH1 0x0 DUP1 REVERT JUMPDEST POP CALLDATALOAD SWAP2 SWAP1 POP JUMP JUMPDEST PUSH1 0x0 PUSH1 0x20 DUP3 DUP5 SUB SLT ISZERO PUSH2 0x16F6 JUMPI PUSH1 0x0 DUP1 REVERT JUMPDEST PUSH2 0x1641 DUP3 PUSH2 0x1648 JUMP JUMPDEST PUSH1 0x80 DUP2 MSTORE PUSH1 0x0 PUSH2 0x1712 PUSH1 0x80 DUP4 ADD DUP8 PUSH2 0x15E8 JUMP JUMPDEST DUP3 DUP2 SUB PUSH1 0x20 DUP5 ADD MSTORE PUSH2 0x1724 DUP2 DUP8 PUSH2 0x15E8 JUMP JUMPDEST SWAP1 POP DUP3 DUP2 SUB PUSH1 0x40 DUP5 ADD MSTORE PUSH2 0x1738 DUP2 DUP7 PUSH2 0x15E8 JUMP JUMPDEST SWAP1 POP DUP3 DUP2 SUB PUSH1 0x60 DUP5 ADD MSTORE PUSH2 0x174C DUP2 DUP6 PUSH2 0x15E8 JUMP JUMPDEST SWAP8 SWAP7 POP POP POP POP POP POP POP JUMP JUMPDEST PUSH1 0x0 DUP1 PUSH1 0x40 DUP4 DUP6 SUB SLT ISZERO PUSH2 0x176A JUMPI PUSH1 0x0 DUP1 REVERT JUMPDEST PUSH2 0x1773 DUP4 PUSH2 0x1648 JUMP JUMPDEST SWAP2 POP PUSH1 0x20 DUP4 ADD CALLDATALOAD DUP1 ISZERO ISZERO DUP2 EQ PUSH2 0x1788 JUMPI PUSH1 0x0 DUP1 REVERT JUMPDEST DUP1 SWAP2 POP POP SWAP3 POP SWAP3 SWAP1 POP JUMP JUMPDEST PUSH1 0x0 DUP1 PUSH1 0x40 DUP4 DUP6 SUB SLT ISZERO PUSH2 0x17A6 JUMPI PUSH1 0x0 DUP1 REVERT JUMPDEST PUSH2 0x17AF DUP4 PUSH2 0x1648 JUMP JUMPDEST SWAP2 POP PUSH2 0x17BD PUSH1 0x20 DUP5 ADD PUSH2 0x1648 JUMP JUMPDEST SWAP1 POP SWAP3 POP SWAP3 SWAP1 POP JUMP JUMPDEST PUSH1 0x1 DUP2 DUP2 SHR SWAP1 DUP3 AND DUP1 PUSH2 0x17DA JUMPI PUSH1 0x7F DUP3 AND SWAP2 POP JUMPDEST PUSH1 0x20 DUP3 LT DUP2 SUB PUSH2 0x17FA JUMPI PUSH4 0x4E487B71 PUSH1 0xE0 SHL PUSH1 0x0 MSTORE PUSH1 0x22 PUSH1 0x4 MSTORE PUSH1 0x24 PUSH1 0x0 REVERT JUMPDEST POP SWAP2 SWAP1 POP JUMP JUMPDEST PUSH4 0x4E487B71 PUSH1 0xE0 SHL PUSH1 0x0 MSTORE PUSH1 0x11 PUSH1 0x4 MSTORE PUSH1 0x24 PUSH1 0x0 REVERT JUMPDEST DUP1 DUP3 ADD DUP1 DUP3 GT ISZERO PUSH2 0x55A JUMPI PUSH2 0x55A PUSH2 0x1800 JUMP JUMPDEST DUP2 DUP2 SUB DUP2 DUP2 GT ISZERO PUSH2 0x55A JUMPI PUSH2 0x55A PUSH2 0x1800 JUMP JUMPDEST PUSH1 0x20 DUP1 DUP3 MSTORE DUP2 DUP2 ADD MSTORE PUSH32 0x4E6F74206F776E6572206F72206F776E6572736869702072656E6F756E636564 PUSH1 0x40 DUP3 ADD MSTORE PUSH1 0x60 ADD SWAP1 JUMP JUMPDEST PUSH1 0x0 DUP3 PUSH2 0x188E JUMPI PUSH4 0x4E487B71 PUSH1 0xE0 SHL PUSH1 0x0 MSTORE PUSH1 0x12 PUSH1 0x4 MSTORE PUSH1 0x24 PUSH1 0x0 REVERT JUMPDEST POP DIV SWAP1 JUMP JUMPDEST PUSH1 0x20 DUP1 DUP3 MSTORE PUSH1 0x21 SWAP1 DUP3 ADD MSTORE PUSH32 0x43616E6E6F742065786365656420313025206F6620746F74616C20737570706C PUSH1 0x40 DUP3 ADD MSTORE PUSH1 0x79 PUSH1 0xF8 SHL PUSH1 0x60 DUP3 ADD MSTORE PUSH1 0x80 ADD SWAP1 JUMP JUMPDEST DUP1 DUP3 MUL DUP2 ISZERO DUP3 DUP3 DIV DUP5 EQ OR PUSH2 0x55A JUMPI PUSH2 0x55A PUSH2 0x1800 JUMP INVALID 0x4E PUSH16 0x20666565732C206C696D69746564206F PUSH24 0x6E657220706F776572732C206175746F6D61746963207265 PUSH15 0x6F756E63656D656E74436F6D6D756E PUSH10 0x74792076657269666965 PUSH5 0x207374616E PUSH5 0x616C6F6E65 KECCAK256 PUSH10 0x6D706C656D656E746174 PUSH10 0x6F6E36302D6461792061 PUSH22 0x746F6D617469632072656E6F756E63656D656E742067 PUSH22 0x6172616E74656564A264697066735822122077B61A23 MSIZE 0xB3 SWAP14 SWAP1 SWAP7 LOG4 0xE2 TIMESTAMP 0xB7 0x25 0xFB ADDMOD 0x4B DIV DUP16 0xAD TLOAD PUSH19 0x2699AE38912F93BC949864736F6C634300081A STOP CALLER "},"methodIdentifiers":{"AUTO_RENOUNCE_DELAY()":"bba7d085","activateEmergencyMode(uint256)":"d9c5e6d7","allowance(address,address)":"dd62ed3e","approve(address,uint256)":"095ea7b3","autoUnpause()":"aca62e00","balanceOf(address)":"70a08231","burn(uint256)":"42966c68","deactivateEmergencyMode()":"99b20eaf","decimals()":"313ce567","deploymentTime()":"ecda10f5","emergencyMode()":"0905f560","emergencyModeEndTime()":"774921f2","enableTrading()":"8a8c523c","excludeFromLimits(address,bool)":"c0a904a2","executeAutoRenounce()":"139b8cbc","getAutoRenounceInfo()":"969b8048","getEmergencyModeStatus()":"7d6e185a","getSecurityInfo()":"8711a719","getTimeUntilAutoRenounce()":"8fa43d03","increaseMaxTxAmount(uint256)":"bd6c350e","increaseMaxWalletAmount(uint256)":"9a12a0d8","isExcludedFromLimits(address)":"5cce86cd","isFullyDecentralized()":"49cea162","isOwnershipAutoRenounced()":"96bf3191","maxTxAmount()":"8c0b5e22","maxWalletAmount()":"aa4bde28","name()":"06fdde03","owner()":"8da5cb5b","ownershipAutoRenounced()":"f684bb01","symbol()":"95d89b41","totalSupply()":"18160ddd","tradingEnabled()":"4ada218b","transfer(address,uint256)":"a9059cbb","transferFrom(address,address,uint256)":"23b872dd"}}}}}