{
  "_format": "hh-sol-artifact-1",
  "contractName": "RewardDistributionStandalone",
  "sourceName": "contracts/RewardDistributionStandalone.sol",
  "abi": [
    {
      "inputs": [
        {
          "internalType": "address",
          "name": "_dayaTokenAddress",
          "type": "address"
        }
      ],
      "stateMutability": "nonpayable",
      "type": "constructor"
    },
    {
      "anonymous": false,
      "inputs": [
        {
          "indexed": true,
          "internalType": "uint256",
          "name": "poolId",
          "type": "uint256"
        },
        {
          "indexed": false,
          "internalType": "uint256",
          "name": "reward",
          "type": "uint256"
        }
      ],
      "name": "RewardAdded",
      "type": "event"
    },
    {
      "anonymous": false,
      "inputs": [
        {
          "indexed": true,
          "internalType": "address",
          "name": "user",
          "type": "address"
        },
        {
          "indexed": true,
          "internalType": "uint256",
          "name": "poolId",
          "type": "uint256"
        },
        {
          "indexed": false,
          "internalType": "uint256",
          "name": "reward",
          "type": "uint256"
        }
      ],
      "name": "RewardPaid",
      "type": "event"
    },
    {
      "inputs": [
        {
          "internalType": "uint256",
          "name": "_poolId",
          "type": "uint256"
        },
        {
          "internalType": "address",
          "name": "_user",
          "type": "address"
        },
        {
          "internalType": "uint256",
          "name": "_rewardAmount",
          "type": "uint256"
        }
      ],
      "name": "addUserToPool",
      "outputs": [],
      "stateMutability": "nonpayable",
      "type": "function"
    },
    {
      "inputs": [
        {
          "internalType": "uint256",
          "name": "_poolId",
          "type": "uint256"
        }
      ],
      "name": "claimRewards",
      "outputs": [],
      "stateMutability": "nonpayable",
      "type": "function"
    },
    {
      "inputs": [
        {
          "internalType": "uint256",
          "name": "_totalRewards",
          "type": "uint256"
        }
      ],
      "name": "createPool",
      "outputs": [],
      "stateMutability": "nonpayable",
      "type": "function"
    },
    {
      "inputs": [],
      "name": "dayaToken",
      "outputs": [
        {
          "internalType": "contract IERC20",
          "name": "",
          "type": "address"
        }
      ],
      "stateMutability": "view",
      "type": "function"
    },
    {
      "inputs": [],
      "name": "owner",
      "outputs": [
        {
          "internalType": "address",
          "name": "",
          "type": "address"
        }
      ],
      "stateMutability": "view",
      "type": "function"
    },
    {
      "inputs": [],
      "name": "poolCount",
      "outputs": [
        {
          "internalType": "uint256",
          "name": "",
          "type": "uint256"
        }
      ],
      "stateMutability": "view",
      "type": "function"
    },
    {
      "inputs": [
        {
          "internalType": "uint256",
          "name": "",
          "type": "uint256"
        }
      ],
      "name": "pools",
      "outputs": [
        {
          "internalType": "uint256",
          "name": "totalRewards",
          "type": "uint256"
        },
        {
          "internalType": "uint256",
          "name": "rewardPerToken",
          "type": "uint256"
        },
        {
          "internalType": "uint256",
          "name": "lastUpdateTime",
          "type": "uint256"
        }
      ],
      "stateMutability": "view",
      "type": "function"
    }
  ],
  "bytecode": "0x60a0604052348015600f57600080fd5b50604051610695380380610695833981016040819052602c91604e565b6001600160a01b0316608052600080546001600160a01b03191633179055607c565b600060208284031215605f57600080fd5b81516001600160a01b0381168114607557600080fd5b9392505050565b6080516105f16100a46000396000818160f201528181610218015261041e01526105f16000f3fe608060405234801561001057600080fd5b506004361061007d5760003560e01c80638da5cb5b1161005b5780638da5cb5b146100bd578063a951f28e146100ed578063ac4afa3814610114578063f525cb681461015d57600080fd5b80630962ef79146100825780632144eb64146100975780638259e6a0146100aa575b600080fd5b6100956100903660046104da565b610174565b005b6100956100a53660046104f3565b6102c3565b6100956100b83660046104da565b610388565b6000546100d0906001600160a01b031681565b6040516001600160a01b0390911681526020015b60405180910390f35b6100d07f000000000000000000000000000000000000000000000000000000000000000081565b6101426101223660046104da565b600160208190526000918252604090912080549181015460029091015483565b604080519384526020840192909252908201526060016100e4565b61016660025481565b6040519081526020016100e4565b60025481106101b95760405162461bcd60e51b815260206004820152600c60248201526b125b9d985b1a59081c1bdbdb60a21b60448201526064015b60405180910390fd5b6000818152600160209081526040808320338452600381019092529091205480156102be57336000818152600384016020526040808220919091555163a9059cbb60e01b81526004810191909152602481018290526001600160a01b037f0000000000000000000000000000000000000000000000000000000000000000169063a9059cbb906044016020604051808303816000875af1158015610261573d6000803e3d6000fd5b505050506040513d601f19601f820116820180604052508101906102859190610537565b50604051818152839033907fd6f2c8500df5b44f11e9e48b91ff9f1b9d81bc496d55570c2b1b75bf65243f519060200160405180910390a35b505050565b6000546001600160a01b031633146103095760405162461bcd60e51b81526020600482015260096024820152682737ba1037bbb732b960b91b60448201526064016101b0565b60025483106103495760405162461bcd60e51b815260206004820152600c60248201526b125b9d985b1a59081c1bdbdb60a21b60448201526064016101b0565b60008381526001602090815260408083206001600160a01b03861684526003019091528120805483929061037e908490610576565b9091555050505050565b6000546001600160a01b031633146103ce5760405162461bcd60e51b81526020600482015260096024820152682737ba1037bbb732b960b91b60448201526064016101b0565b60028054600090815260016020526040812083815542818401558254909290916103f78361058f565b90915550506040516323b872dd60e01b8152336004820152306024820152604481018390527f00000000000000000000000000000000000000000000000000000000000000006001600160a01b0316906323b872dd906064016020604051808303816000875af115801561046f573d6000803e3d6000fd5b505050506040513d601f19601f820116820180604052508101906104939190610537565b5060016002546104a391906105a8565b6040518381527f6c07ee05dcf262f13abf9d87b846ee789d2f90fe991d495acd7d7fc109ee1f559060200160405180910390a25050565b6000602082840312156104ec57600080fd5b5035919050565b60008060006060848603121561050857600080fd5b8335925060208401356001600160a01b038116811461052657600080fd5b929592945050506040919091013590565b60006020828403121561054957600080fd5b8151801515811461055957600080fd5b9392505050565b634e487b7160e01b600052601160045260246000fd5b8082018082111561058957610589610560565b92915050565b6000600182016105a1576105a1610560565b5060010190565b818103818111156105895761058961056056fea264697066735822122094822e952d1ff37ba2ad54e0b32df4d3d4b2595af709fc1db7588a14ade5dbbc64736f6c634300081a0033",
  "linkReferences": {},
  "deployedLinkReferences": {}
}