{
  "_format": "hh-sol-artifact-1",
  "contractName": "VestingStandalone",
  "sourceName": "contracts/VestingStandalone.sol",
  "abi": [
    {
      "inputs": [
        {
          "internalType": "address",
          "name": "_dayaTokenAddress",
          "type": "address"
        }
      ],
      "stateMutability": "nonpayable",
      "type": "constructor"
    },
    {
      "anonymous": false,
      "inputs": [
        {
          "indexed": true,
          "internalType": "address",
          "name": "beneficiary",
          "type": "address"
        },
        {
          "indexed": false,
          "internalType": "uint256",
          "name": "amount",
          "type": "uint256"
        }
      ],
      "name": "TokensReleased",
      "type": "event"
    },
    {
      "anonymous": false,
      "inputs": [
        {
          "indexed": true,
          "internalType": "address",
          "name": "beneficiary",
          "type": "address"
        }
      ],
      "name": "VestingRevoked",
      "type": "event"
    },
    {
      "anonymous": false,
      "inputs": [
        {
          "indexed": true,
          "internalType": "address",
          "name": "beneficiary",
          "type": "address"
        },
        {
          "indexed": false,
          "internalType": "uint256",
          "name": "totalAmount",
          "type": "uint256"
        },
        {
          "indexed": false,
          "internalType": "uint256",
          "name": "start",
          "type": "uint256"
        },
        {
          "indexed": false,
          "internalType": "uint256",
          "name": "duration",
          "type": "uint256"
        }
      ],
      "name": "VestingScheduleCreated",
      "type": "event"
    },
    {
      "inputs": [
        {
          "internalType": "address",
          "name": "_beneficiary",
          "type": "address"
        },
        {
          "internalType": "uint256",
          "name": "_totalAmount",
          "type": "uint256"
        },
        {
          "internalType": "uint256",
          "name": "_cliff",
          "type": "uint256"
        },
        {
          "internalType": "uint256",
          "name": "_duration",
          "type": "uint256"
        },
        {
          "internalType": "bool",
          "name": "_revocable",
          "type": "bool"
        }
      ],
      "name": "createVestingSchedule",
      "outputs": [],
      "stateMutability": "nonpayable",
      "type": "function"
    },
    {
      "inputs": [],
      "name": "dayaToken",
      "outputs": [
        {
          "internalType": "contract IERC20",
          "name": "",
          "type": "address"
        }
      ],
      "stateMutability": "view",
      "type": "function"
    },
    {
      "inputs": [
        {
          "internalType": "address",
          "name": "_beneficiary",
          "type": "address"
        }
      ],
      "name": "getReleasableAmount",
      "outputs": [
        {
          "internalType": "uint256",
          "name": "",
          "type": "uint256"
        }
      ],
      "stateMutability": "view",
      "type": "function"
    },
    {
      "inputs": [],
      "name": "owner",
      "outputs": [
        {
          "internalType": "address",
          "name": "",
          "type": "address"
        }
      ],
      "stateMutability": "view",
      "type": "function"
    },
    {
      "inputs": [],
      "name": "release",
      "outputs": [],
      "stateMutability": "nonpayable",
      "type": "function"
    },
    {
      "inputs": [
        {
          "internalType": "address",
          "name": "_beneficiary",
          "type": "address"
        }
      ],
      "name": "revokeVesting",
      "outputs": [],
      "stateMutability": "nonpayable",
      "type": "function"
    },
    {
      "inputs": [
        {
          "internalType": "address",
          "name": "",
          "type": "address"
        }
      ],
      "name": "vestingSchedules",
      "outputs": [
        {
          "internalType": "uint256",
          "name": "totalAmount",
          "type": "uint256"
        },
        {
          "internalType": "uint256",
          "name": "start",
          "type": "uint256"
        },
        {
          "internalType": "uint256",
          "name": "cliff",
          "type": "uint256"
        },
        {
          "internalType": "uint256",
          "name": "duration",
          "type": "uint256"
        },
        {
          "internalType": "uint256",
          "name": "released",
          "type": "uint256"
        },
        {
          "internalType": "bool",
          "name": "revocable",
          "type": "bool"
        },
        {
          "internalType": "bool",
          "name": "revoked",
          "type": "bool"
        }
      ],
      "stateMutability": "view",
      "type": "function"
    }
  ],
  "bytecode": "0x60a0604052348015600f57600080fd5b50604051610c7c380380610c7c833981016040819052602c91604e565b6001600160a01b0316608052600080546001600160a01b03191633179055607c565b600060208284031215605f57600080fd5b81516001600160a01b0381168114607557600080fd5b9392505050565b608051610bc96100b360003960008181610108015281816103d501528181610712015281816107d601526109a90152610bc96000f3fe608060405234801561001057600080fd5b506004361061007d5760003560e01c806386d1a69f1161005b57806386d1a69f146100d05780638da5cb5b146100d8578063a951f28e14610103578063fdb20ccb1461012a57600080fd5b80630f19734f146100825780632afd1a7d146100975780633b0da260146100bd575b600080fd5b610095610090366004610a85565b6101b3565b005b6100aa6100a5366004610ad9565b6104d8565b6040519081526020015b60405180910390f35b6100956100cb366004610ad9565b6105d2565b610095610881565b6000546100eb906001600160a01b031681565b6040516001600160a01b0390911681526020016100b4565b6100eb7f000000000000000000000000000000000000000000000000000000000000000081565b61017a610138366004610ad9565b60016020819052600091825260409091208054918101546002820154600383015460048401546005909401549293919290919060ff8082169161010090041687565b6040805197885260208801969096529486019390935260608501919091526080840152151560a0830152151560c082015260e0016100b4565b6000546001600160a01b031633146101fe5760405162461bcd60e51b81526020600482015260096024820152682737ba1037bbb732b960b91b60448201526064015b60405180910390fd5b6001600160a01b03851661024a5760405162461bcd60e51b8152602060048201526013602482015272496e76616c69642062656e656669636961727960681b60448201526064016101f5565b6000841161029a5760405162461bcd60e51b815260206004820152601d60248201527f416d6f756e74206d7573742062652067726561746572207468616e203000000060448201526064016101f5565b6001600160a01b038516600090815260016020526040902054156103005760405162461bcd60e51b815260206004820152601760248201527f5363686564756c6520616c72656164792065786973747300000000000000000060448201526064016101f5565b6040518060e001604052808581526020014281526020018481526020018381526020016000815260200182151581526020016000151581525060016000876001600160a01b03166001600160a01b03168152602001908152602001600020600082015181600001556020820151816001015560408201518160020155606082015181600301556080820151816004015560a08201518160050160006101000a81548160ff02191690831515021790555060c08201518160050160016101000a81548160ff0219169083151502179055509050507f00000000000000000000000000000000000000000000000000000000000000006001600160a01b03166323b872dd3330876040518463ffffffff1660e01b8152600401610442939291906001600160a01b039384168152919092166020820152604081019190915260600190565b6020604051808303816000875af1158015610461573d6000803e3d6000fd5b505050506040513d601f19601f820116820180604052508101906104859190610afb565b50604080518581524260208201529081018390526001600160a01b038616907f892f1a841b10e4b041cc41d8cc47c6a6049f1ff5fa272ddf47a0aa5ad8f59d139060600160405180910390a25050505050565b6001600160a01b0381166000908152600160208181526040808420815160e08101835281548152938101549284019290925260028201549083015260038101546060830152600481015460808301526005015460ff808216151560a084015261010090910416151560c08201819052806105645750806040015181602001516105619190610b2e565b42105b156105725750600092915050565b60008160200151426105849190610b47565b905060008260600151821061059b575081516105ba565b606083015183516105ad908490610b5a565b6105b79190610b71565b90505b60808301516105c99082610b47565b95945050505050565b6000546001600160a01b031633146106185760405162461bcd60e51b81526020600482015260096024820152682737ba1037bbb732b960b91b60448201526064016101f5565b6001600160a01b0381166000908152600160205260409020600581015460ff166106745760405162461bcd60e51b815260206004820152600d60248201526c4e6f74207265766f6361626c6560981b60448201526064016101f5565b6005810154610100900460ff16156106c05760405162461bcd60e51b815260206004820152600f60248201526e105b1c9958591e481c995d9bdad959608a1b60448201526064016101f5565b60006106cb836104d8565b9050801561078157808260040160008282546106e79190610b2e565b909155505060405163a9059cbb60e01b81526001600160a01b038481166004830152602482018390527f0000000000000000000000000000000000000000000000000000000000000000169063a9059cbb906044016020604051808303816000875af115801561075b573d6000803e3d6000fd5b505050506040513d601f19601f8201168201806040525081019061077f9190610afb565b505b60058201805461ff001916610100179055600482015482546000916107a591610b47565b905080156108475760005460405163a9059cbb60e01b81526001600160a01b039182166004820152602481018390527f00000000000000000000000000000000000000000000000000000000000000009091169063a9059cbb906044016020604051808303816000875af1158015610821573d6000803e3d6000fd5b505050506040513d601f19601f820116820180604052508101906108459190610afb565b505b6040516001600160a01b038516907f68d870ac0aff3819234e8a1fc8f357b40d75212f2dc8594b97690fa205b3bab290600090a250505050565b33600090815260016020526040902080546108d45760405162461bcd60e51b81526020600482015260136024820152724e6f2076657374696e67207363686564756c6560681b60448201526064016101f5565b6005810154610100900460ff16156109205760405162461bcd60e51b815260206004820152600f60248201526e15995cdd1a5b99c81c995d9bdad959608a1b60448201526064016101f5565b600061092b336104d8565b9050600081116109745760405162461bcd60e51b81526020600482015260146024820152734e6f20746f6b656e7320746f2072656c6561736560601b60448201526064016101f5565b808260040160008282546109889190610b2e565b909155505060405163a9059cbb60e01b8152336004820152602481018290527f00000000000000000000000000000000000000000000000000000000000000006001600160a01b03169063a9059cbb906044016020604051808303816000875af11580156109fa573d6000803e3d6000fd5b505050506040513d601f19601f82011682018060405250810190610a1e9190610afb565b5060405181815233907fc7798891864187665ac6dd119286e44ec13f014527aeeb2b8eb3fd413df931799060200160405180910390a25050565b80356001600160a01b0381168114610a6f57600080fd5b919050565b8015158114610a8257600080fd5b50565b600080600080600060a08688031215610a9d57600080fd5b610aa686610a58565b94506020860135935060408601359250606086013591506080860135610acb81610a74565b809150509295509295909350565b600060208284031215610aeb57600080fd5b610af482610a58565b9392505050565b600060208284031215610b0d57600080fd5b8151610af481610a74565b634e487b7160e01b600052601160045260246000fd5b80820180821115610b4157610b41610b18565b92915050565b81810381811115610b4157610b41610b18565b8082028115828204841417610b4157610b41610b18565b600082610b8e57634e487b7160e01b600052601260045260246000fd5b50049056fea264697066735822122088940c3a7f0e49bb22e5eb4b31f95bded404f761c2edc4de30eea712e0baadad64736f6c634300081a0033",
  "linkReferences": {},
  "deployedLinkReferences": {}
}