{
  "_format": "hh-sol-artifact-1",
  "contractName": "DAYATokenStandalone",
  "sourceName": "contracts/DAYATokenStandalone.sol",
  "abi": [
    {
      "inputs": [],
      "stateMutability": "nonpayable",
      "type": "constructor"
    },
    {
      "anonymous": false,
      "inputs": [
        {
          "indexed": true,
          "internalType": "address",
          "name": "owner",
          "type": "address"
        },
        {
          "indexed": true,
          "internalType": "address",
          "name": "spender",
          "type": "address"
        },
        {
          "indexed": false,
          "internalType": "uint256",
          "name": "value",
          "type": "uint256"
        }
      ],
      "name": "Approval",
      "type": "event"
    },
    {
      "anonymous": false,
      "inputs": [
        {
          "indexed": false,
          "internalType": "uint256",
          "name": "timestamp",
          "type": "uint256"
        }
      ],
      "name": "AutoRenounceExecuted",
      "type": "event"
    },
    {
      "anonymous": false,
      "inputs": [
        {
          "indexed": false,
          "internalType": "uint256",
          "name": "endTime",
          "type": "uint256"
        }
      ],
      "name": "EmergencyModeActivated",
      "type": "event"
    },
    {
      "anonymous": false,
      "inputs": [],
      "name": "EmergencyModeDeactivated",
      "type": "event"
    },
    {
      "anonymous": false,
      "inputs": [
        {
          "indexed": true,
          "internalType": "address",
          "name": "previousOwner",
          "type": "address"
        },
        {
          "indexed": true,
          "internalType": "address",
          "name": "newOwner",
          "type": "address"
        }
      ],
      "name": "OwnershipTransferred",
      "type": "event"
    },
    {
      "anonymous": false,
      "inputs": [],
      "name": "TradingEnabled",
      "type": "event"
    },
    {
      "anonymous": false,
      "inputs": [
        {
          "indexed": true,
          "internalType": "address",
          "name": "from",
          "type": "address"
        },
        {
          "indexed": true,
          "internalType": "address",
          "name": "to",
          "type": "address"
        },
        {
          "indexed": false,
          "internalType": "uint256",
          "name": "value",
          "type": "uint256"
        }
      ],
      "name": "Transfer",
      "type": "event"
    },
    {
      "inputs": [],
      "name": "AUTO_RENOUNCE_DELAY",
      "outputs": [
        {
          "internalType": "uint256",
          "name": "",
          "type": "uint256"
        }
      ],
      "stateMutability": "view",
      "type": "function"
    },
    {
      "inputs": [
        {
          "internalType": "uint256",
          "name": "_durationHours",
          "type": "uint256"
        }
      ],
      "name": "activateEmergencyMode",
      "outputs": [],
      "stateMutability": "nonpayable",
      "type": "function"
    },
    {
      "inputs": [
        {
          "internalType": "address",
          "name": "owner",
          "type": "address"
        },
        {
          "internalType": "address",
          "name": "spender",
          "type": "address"
        }
      ],
      "name": "allowance",
      "outputs": [
        {
          "internalType": "uint256",
          "name": "",
          "type": "uint256"
        }
      ],
      "stateMutability": "view",
      "type": "function"
    },
    {
      "inputs": [
        {
          "internalType": "address",
          "name": "spender",
          "type": "address"
        },
        {
          "internalType": "uint256",
          "name": "amount",
          "type": "uint256"
        }
      ],
      "name": "approve",
      "outputs": [
        {
          "internalType": "bool",
          "name": "",
          "type": "bool"
        }
      ],
      "stateMutability": "nonpayable",
      "type": "function"
    },
    {
      "inputs": [],
      "name": "autoUnpause",
      "outputs": [],
      "stateMutability": "nonpayable",
      "type": "function"
    },
    {
      "inputs": [
        {
          "internalType": "address",
          "name": "account",
          "type": "address"
        }
      ],
      "name": "balanceOf",
      "outputs": [
        {
          "internalType": "uint256",
          "name": "",
          "type": "uint256"
        }
      ],
      "stateMutability": "view",
      "type": "function"
    },
    {
      "inputs": [
        {
          "internalType": "uint256",
          "name": "amount",
          "type": "uint256"
        }
      ],
      "name": "burn",
      "outputs": [],
      "stateMutability": "nonpayable",
      "type": "function"
    },
    {
      "inputs": [],
      "name": "deactivateEmergencyMode",
      "outputs": [],
      "stateMutability": "nonpayable",
      "type": "function"
    },
    {
      "inputs": [],
      "name": "decimals",
      "outputs": [
        {
          "internalType": "uint8",
          "name": "",
          "type": "uint8"
        }
      ],
      "stateMutability": "view",
      "type": "function"
    },
    {
      "inputs": [],
      "name": "deploymentTime",
      "outputs": [
        {
          "internalType": "uint256",
          "name": "",
          "type": "uint256"
        }
      ],
      "stateMutability": "view",
      "type": "function"
    },
    {
      "inputs": [],
      "name": "emergencyMode",
      "outputs": [
        {
          "internalType": "bool",
          "name": "",
          "type": "bool"
        }
      ],
      "stateMutability": "view",
      "type": "function"
    },
    {
      "inputs": [],
      "name": "emergencyModeEndTime",
      "outputs": [
        {
          "internalType": "uint256",
          "name": "",
          "type": "uint256"
        }
      ],
      "stateMutability": "view",
      "type": "function"
    },
    {
      "inputs": [],
      "name": "enableTrading",
      "outputs": [],
      "stateMutability": "nonpayable",
      "type": "function"
    },
    {
      "inputs": [
        {
          "internalType": "address",
          "name": "_address",
          "type": "address"
        },
        {
          "internalType": "bool",
          "name": "_excluded",
          "type": "bool"
        }
      ],
      "name": "excludeFromLimits",
      "outputs": [],
      "stateMutability": "nonpayable",
      "type": "function"
    },
    {
      "inputs": [],
      "name": "executeAutoRenounce",
      "outputs": [],
      "stateMutability": "nonpayable",
      "type": "function"
    },
    {
      "inputs": [],
      "name": "getAutoRenounceInfo",
      "outputs": [
        {
          "internalType": "uint256",
          "name": "deployTime",
          "type": "uint256"
        },
        {
          "internalType": "uint256",
          "name": "renounceTime",
          "type": "uint256"
        },
        {
          "internalType": "bool",
          "name": "isRenounced",
          "type": "bool"
        },
        {
          "internalType": "uint256",
          "name": "timeRemaining",
          "type": "uint256"
        }
      ],
      "stateMutability": "view",
      "type": "function"
    },
    {
      "inputs": [],
      "name": "getEmergencyModeStatus",
      "outputs": [
        {
          "internalType": "bool",
          "name": "active",
          "type": "bool"
        },
        {
          "internalType": "uint256",
          "name": "timeRemaining",
          "type": "uint256"
        }
      ],
      "stateMutability": "view",
      "type": "function"
    },
    {
      "inputs": [],
      "name": "getSecurityInfo",
      "outputs": [
        {
          "internalType": "string",
          "name": "auditStatus",
          "type": "string"
        },
        {
          "internalType": "string",
          "name": "securityFeatures",
          "type": "string"
        },
        {
          "internalType": "string",
          "name": "riskLevel",
          "type": "string"
        },
        {
          "internalType": "string",
          "name": "autoRenounceStatus",
          "type": "string"
        }
      ],
      "stateMutability": "pure",
      "type": "function"
    },
    {
      "inputs": [],
      "name": "getTimeUntilAutoRenounce",
      "outputs": [
        {
          "internalType": "uint256",
          "name": "",
          "type": "uint256"
        }
      ],
      "stateMutability": "view",
      "type": "function"
    },
    {
      "inputs": [
        {
          "internalType": "uint256",
          "name": "_newAmount",
          "type": "uint256"
        }
      ],
      "name": "increaseMaxTxAmount",
      "outputs": [],
      "stateMutability": "nonpayable",
      "type": "function"
    },
    {
      "inputs": [
        {
          "internalType": "uint256",
          "name": "_newAmount",
          "type": "uint256"
        }
      ],
      "name": "increaseMaxWalletAmount",
      "outputs": [],
      "stateMutability": "nonpayable",
      "type": "function"
    },
    {
      "inputs": [
        {
          "internalType": "address",
          "name": "",
          "type": "address"
        }
      ],
      "name": "isExcludedFromLimits",
      "outputs": [
        {
          "internalType": "bool",
          "name": "",
          "type": "bool"
        }
      ],
      "stateMutability": "view",
      "type": "function"
    },
    {
      "inputs": [],
      "name": "isFullyDecentralized",
      "outputs": [
        {
          "internalType": "bool",
          "name": "",
          "type": "bool"
        }
      ],
      "stateMutability": "view",
      "type": "function"
    },
    {
      "inputs": [],
      "name": "isOwnershipAutoRenounced",
      "outputs": [
        {
          "internalType": "bool",
          "name": "",
          "type": "bool"
        }
      ],
      "stateMutability": "view",
      "type": "function"
    },
    {
      "inputs": [],
      "name": "maxTxAmount",
      "outputs": [
        {
          "internalType": "uint256",
          "name": "",
          "type": "uint256"
        }
      ],
      "stateMutability": "view",
      "type": "function"
    },
    {
      "inputs": [],
      "name": "maxWalletAmount",
      "outputs": [
        {
          "internalType": "uint256",
          "name": "",
          "type": "uint256"
        }
      ],
      "stateMutability": "view",
      "type": "function"
    },
    {
      "inputs": [],
      "name": "name",
      "outputs": [
        {
          "internalType": "string",
          "name": "",
          "type": "string"
        }
      ],
      "stateMutability": "view",
      "type": "function"
    },
    {
      "inputs": [],
      "name": "owner",
      "outputs": [
        {
          "internalType": "address",
          "name": "",
          "type": "address"
        }
      ],
      "stateMutability": "view",
      "type": "function"
    },
    {
      "inputs": [],
      "name": "ownershipAutoRenounced",
      "outputs": [
        {
          "internalType": "bool",
          "name": "",
          "type": "bool"
        }
      ],
      "stateMutability": "view",
      "type": "function"
    },
    {
      "inputs": [],
      "name": "symbol",
      "outputs": [
        {
          "internalType": "string",
          "name": "",
          "type": "string"
        }
      ],
      "stateMutability": "view",
      "type": "function"
    },
    {
      "inputs": [],
      "name": "totalSupply",
      "outputs": [
        {
          "internalType": "uint256",
          "name": "",
          "type": "uint256"
        }
      ],
      "stateMutability": "view",
      "type": "function"
    },
    {
      "inputs": [],
      "name": "tradingEnabled",
      "outputs": [
        {
          "internalType": "bool",
          "name": "",
          "type": "bool"
        }
      ],
      "stateMutability": "view",
      "type": "function"
    },
    {
      "inputs": [
        {
          "internalType": "address",
          "name": "to",
          "type": "address"
        },
        {
          "internalType": "uint256",
          "name": "amount",
          "type": "uint256"
        }
      ],
      "name": "transfer",
      "outputs": [
        {
          "internalType": "bool",
          "name": "",
          "type": "bool"
        }
      ],
      "stateMutability": "nonpayable",
      "type": "function"
    },
    {
      "inputs": [
        {
          "internalType": "address",
          "name": "from",
          "type": "address"
        },
        {
          "internalType": "address",
          "name": "to",
          "type": "address"
        },
        {
          "internalType": "uint256",
          "name": "amount",
          "type": "uint256"
        }
      ],
      "name": "transferFrom",
      "outputs": [
        {
          "internalType": "bool",
          "name": "",
          "type": "bool"
        }
      ],
      "stateMutability": "nonpayable",
      "type": "function"
    }
  ],
  "bytecode": "0x60a060405234801561001057600080fd5b5060408051808201909152600c81526b424153454420444159414e4160a01b60208201526003906100419082610204565b50604080518082019091526004808252634441594160e01b6020830152906100699082610204565b506005805460ff1916601290811790915561008590600a6103c1565b61009390633b9aca006103d7565b60028190554260805260058054610100600160a81b0319163361010081029190911790915560008181526020818152604080832085905551938452919290917fddf252ad1be2c89b69c2b068fc378daa952ba7f163c4a11628f55a4df523b3ef910160405180910390a360006064600254600261011091906103d7565b61011a91906103ee565b600781905560085550336000908152600a60205260408082208054600160ff199182168117909255308452919092208054821683179055600691909155600980549091169055610410565b634e487b7160e01b600052604160045260246000fd5b600181811c9082168061018f57607f821691505b6020821081036101af57634e487b7160e01b600052602260045260246000fd5b50919050565b601f8211156101ff57806000526020600020601f840160051c810160208510156101dc5750805b601f840160051c820191505b818110156101fc57600081556001016101e8565b50505b505050565b81516001600160401b0381111561021d5761021d610165565b6102318161022b845461017b565b846101b5565b6020601f821160018114610265576000831561024d5750848201515b600019600385901b1c1916600184901b1784556101fc565b600084815260208120601f198516915b828110156102955787850151825560209485019460019092019101610275565b50848210156102b35786840151600019600387901b60f8161c191681555b50505050600190811b01905550565b634e487b7160e01b600052601160045260246000fd5b6001815b6001841115610313578085048111156102f7576102f76102c2565b600184161561030557908102905b60019390931c9280026102dc565b935093915050565b60008261032a575060016103bb565b81610337575060006103bb565b816001811461034d576002811461035757610373565b60019150506103bb565b60ff841115610368576103686102c2565b50506001821b6103bb565b5060208310610133831016604e8410600b8410161715610396575081810a6103bb565b6103a360001984846102d8565b80600019048211156103b7576103b76102c2565b0290505b92915050565b60006103d060ff84168361031b565b9392505050565b80820281158282048414176103bb576103bb6102c2565b60008261040b57634e487b7160e01b600052601260045260246000fd5b500490565b6080516119aa61044e60003960008181610488015281816105c501528181610af301528181610b2d01528181610b6c0152610bf001526119aa6000f3fe608060405234801561001057600080fd5b50600436106102065760003560e01c80638da5cb5b1161011a578063aa4bde28116100ad578063c0a904a21161007c578063c0a904a214610424578063d9c5e6d714610437578063dd62ed3e1461044a578063ecda10f514610483578063f684bb01146104aa57600080fd5b8063aa4bde28146103f6578063aca62e00146103ff578063bba7d08514610407578063bd6c350e1461041157600080fd5b806396bf3191116100e957806396bf3191146103c057806399b20eaf146103c85780639a12a0d8146103d0578063a9059cbb146103e357600080fd5b80638da5cb5b146103625780638fa43d031461038257806395d89b411461038a578063969b80481461039257600080fd5b806349cea1621161019d578063774921f21161016c578063774921f2146103115780637d6e185a1461031a5780638711a719146103395780638a8c523c146103515780638c0b5e221461035957600080fd5b806349cea162146102b05780634ada218b146102b85780635cce86cd146102c557806370a08231146102e857600080fd5b806318160ddd116101d957806318160ddd1461026357806323b872dd14610275578063313ce5671461028857806342966c681461029d57600080fd5b806306fdde031461020b5780630905f56014610229578063095ea7b314610246578063139b8cbc14610259575b600080fd5b6102136104b7565b604051610220919061162e565b60405180910390f35b600b546102369060ff1681565b6040519015158152602001610220565b610236610254366004611664565b610549565b610261610560565b005b6002545b604051908152602001610220565b61023661028336600461168e565b61071e565b60055460405160ff9091168152602001610220565b6102616102ab3660046116cb565b6107cd565b610236610900565b6009546102369060ff1681565b6102366102d33660046116e4565b600a6020526000908152604090205460ff1681565b6102676102f63660046116e4565b6001600160a01b031660009081526020819052604090205490565b610267600c5481565b61032261090f565b604080519215158352602083019190915201610220565b61034161094b565b60405161022094939291906116ff565b6102616109e0565b61026760085481565b61036a610aab565b6040516001600160a01b039091168152602001610220565b610267610ad5565b610213610b5b565b61039a610b6a565b604080519485526020850193909352901515918301919091526060820152608001610220565b610236610bd8565b610261610c1c565b6102616103de3660046116cb565b610ce8565b6102366103f1366004611664565b610db8565b61026760075481565b610261610dc5565b610267624f1a0081565b61026161041f3660046116cb565b610e24565b610261610432366004611757565b610ee8565b6102616104453660046116cb565b610f9b565b610267610458366004611793565b6001600160a01b03918216600090815260016020908152604080832093909416825291909152205490565b6102677f000000000000000000000000000000000000000000000000000000000000000081565b600d546102369060ff1681565b6060600380546104c6906117c6565b80601f01602080910402602001604051908101604052809291908181526020018280546104f2906117c6565b801561053f5780601f106105145761010080835404028352916020019161053f565b820191906000526020600020905b81548152906001019060200180831161052257829003601f168201915b5050505050905090565b60006105563384846110eb565b5060015b92915050565b6002600654036105b75760405162461bcd60e51b815260206004820152601f60248201527f5265656e7472616e637947756172643a207265656e7472616e742063616c6c0060448201526064015b60405180910390fd5b60026006556105e9624f1a007f0000000000000000000000000000000000000000000000000000000000000000611816565b4210156106385760405162461bcd60e51b815260206004820152601e60248201527f4175746f2d72656e6f756e63652074696d65206e6f742072656163686564000060448201526064016105ae565b600d5460ff16156106845760405162461bcd60e51b8152602060048201526016602482015275105b1c9958591e48185d5d1bcb5c995b9bdd5b98d95960521b60448201526064016105ae565b600d8054600160ff1990911617905560058054610100600160a81b031981169091556040516101009091046001600160a01b03169060009082907f8be0079c531659141344cd1fd0a4f28419497f9722a3daafe3b4186f6b6457e0908390a36040514281527f745f8278fd0f921aa109aa7e8248084a162002f3bde74aada89120f653a564a19060200160405180910390a1506001600655565b6001600160a01b0383166000908152600160209081526040808320338452909152812054828110156107a35760405162461bcd60e51b815260206004820152602860248201527f45524332303a207472616e7366657220616d6f756e74206578636565647320616044820152676c6c6f77616e636560c01b60648201526084016105ae565b6107ae858585611210565b6107c285336107bd8685611829565b6110eb565b506001949350505050565b60026006540361081f5760405162461bcd60e51b815260206004820152601f60248201527f5265656e7472616e637947756172643a207265656e7472616e742063616c6c0060448201526064016105ae565b6002600655336000908152602081905260409020548111156108835760405162461bcd60e51b815260206004820152601b60248201527f4275726e20616d6f756e7420657863656564732062616c616e6365000000000060448201526064016105ae565b33600090815260208190526040812080548392906108a2908490611829565b9250508190555080600260008282546108bb9190611829565b909155505060405181815260009033907fddf252ad1be2c89b69c2b068fc378daa952ba7f163c4a11628f55a4df523b3ef9060200160405180910390a3506001600655565b600061090a610bd8565b905090565b600b54600090819060ff1680156109285750600c544211155b915081156109445742600c5461093e9190611829565b90509091565b5060009091565b6060806060806040518060600160405280602c8152602001611921602c913993506040518060600160405280603581526020016118ec6035913992506040518060400160405280601e81526020017f556c747261204c6f77202d204175746f2d646563656e7472616c697a65640000815250915060405180606001604052806028815260200161194d60289139905090919293565b6109e8610bd8565b158015610a04575060055461010090046001600160a01b031633145b610a205760405162461bcd60e51b81526004016105ae9061183c565b60095460ff1615610a735760405162461bcd60e51b815260206004820152601760248201527f54726164696e6720616c726561647920656e61626c656400000000000000000060448201526064016105ae565b6009805460ff191660011790556040517f799663458a5ef2936f7fa0c99b3336c69c25890f82974f04e811e5bb359186c790600090a1565b6000610ab5610bd8565b15610ac05750600090565b5060055461010090046001600160a01b031690565b6000610adf610bd8565b15610aea5750600090565b610b17624f1a007f0000000000000000000000000000000000000000000000000000000000000000611816565b4210610b235750600090565b42610b51624f1a007f0000000000000000000000000000000000000000000000000000000000000000611816565b61090a9190611829565b6060600480546104c6906117c6565b7f000000000000000000000000000000000000000000000000000000000000000060008080610b9c624f1a0085611816565b9250610ba6610bd8565b91508115610bb657506000610bd2565b824210610bc557506000610bd2565b610bcf4284611829565b90505b90919293565b600d5460009060ff168061090a5750610c14624f1a007f0000000000000000000000000000000000000000000000000000000000000000611816565b421015905090565b610c24610bd8565b158015610c40575060055461010090046001600160a01b031633145b610c5c5760405162461bcd60e51b81526004016105ae9061183c565b600b5460ff16610cae5760405162461bcd60e51b815260206004820152601960248201527f456d657267656e6379206d6f6465206e6f74206163746976650000000000000060448201526064016105ae565b600b805460ff191690556000600c8190556040517f70b9dcaceb756943ac1a4f48b8df9ea82fbb012b87e405cba4ed77d1ded0df419190a1565b610cf0610bd8565b158015610d0c575060055461010090046001600160a01b031633145b610d285760405162461bcd60e51b81526004016105ae9061183c565b6007548111610d855760405162461bcd60e51b815260206004820152602360248201527f43616e206f6e6c7920696e637265617365206d61782077616c6c657420616d6f6044820152621d5b9d60ea1b60648201526084016105ae565b600a600254610d949190611871565b811115610db35760405162461bcd60e51b81526004016105ae90611893565b600755565b6000610556338484611210565b600b5460ff168015610dd85750600c5442115b610cae5760405162461bcd60e51b815260206004820152601b60248201527f456d657267656e6379206d6f6465207374696c6c20616374697665000000000060448201526064016105ae565b610e2c610bd8565b158015610e48575060055461010090046001600160a01b031633145b610e645760405162461bcd60e51b81526004016105ae9061183c565b6008548111610eb55760405162461bcd60e51b815260206004820152601f60248201527f43616e206f6e6c7920696e637265617365206d617820747820616d6f756e740060448201526064016105ae565b600a600254610ec49190611871565b811115610ee35760405162461bcd60e51b81526004016105ae90611893565b600855565b610ef0610bd8565b158015610f0c575060055461010090046001600160a01b031633145b610f285760405162461bcd60e51b81526004016105ae9061183c565b6001600160a01b038216610f705760405162461bcd60e51b815260206004820152600f60248201526e496e76616c6964206164647265737360881b60448201526064016105ae565b6001600160a01b03919091166000908152600a60205260409020805460ff1916911515919091179055565b610fa3610bd8565b158015610fbf575060055461010090046001600160a01b031633145b610fdb5760405162461bcd60e51b81526004016105ae9061183c565b604881111561103a5760405162461bcd60e51b815260206004820152602560248201527f456d657267656e6379206d6f64652063616e6e6f742065786365656420373220604482015264686f75727360d81b60648201526084016105ae565b600b5460ff161561108d5760405162461bcd60e51b815260206004820152601d60248201527f456d657267656e6379206d6f646520616c72656164792061637469766500000060448201526064016105ae565b600b805460ff191660011790556110a681610e106118d4565b6110b09042611816565b600c8190556040519081527f5fa9abb83376468762d4533d9cd0a8f21edf0033fa06b47347578fb235a92edc9060200160405180910390a150565b6001600160a01b03831661114d5760405162461bcd60e51b8152602060048201526024808201527f45524332303a20617070726f76652066726f6d20746865207a65726f206164646044820152637265737360e01b60648201526084016105ae565b6001600160a01b0382166111ae5760405162461bcd60e51b815260206004820152602260248201527f45524332303a20617070726f766520746f20746865207a65726f206164647265604482015261737360f01b60648201526084016105ae565b6001600160a01b0383811660008181526001602090815260408083209487168084529482529182902085905590518481527f8c5be1e5ebec7d5bd14f71427d1e84f3dd0314c0f7b2291e5b200ac8c7c3b92591015b60405180910390a3505050565b600b5460ff1615806112235750600c5442115b6112675760405162461bcd60e51b8152602060048201526015602482015274456d657267656e6379206d6f64652061637469766560581b60448201526064016105ae565b6001600160a01b0383166112cb5760405162461bcd60e51b815260206004820152602560248201527f45524332303a207472616e736665722066726f6d20746865207a65726f206164604482015264647265737360d81b60648201526084016105ae565b6001600160a01b03821661132d5760405162461bcd60e51b815260206004820152602360248201527f45524332303a207472616e7366657220746f20746865207a65726f206164647260448201526265737360e81b60648201526084016105ae565b6001600160a01b0383166000908152602081905260409020548111156113a45760405162461bcd60e51b815260206004820152602660248201527f45524332303a207472616e7366657220616d6f756e7420657863656564732062604482015265616c616e636560d01b60648201526084016105ae565b60095460ff16611439576001600160a01b0383166000908152600a602052604090205460ff16806113ed57506001600160a01b0382166000908152600a602052604090205460ff165b6114395760405162461bcd60e51b815260206004820152601760248201527f54726164696e67206e6f742079657420656e61626c656400000000000000000060448201526064016105ae565b6001600160a01b0383166000908152600a602052604090205460ff1615801561147b57506001600160a01b0382166000908152600a602052604090205460ff16155b15611547576008548111156114d25760405162461bcd60e51b815260206004820152601f60248201527f5472616e7366657220616d6f756e742065786365656473206d6178696d756d0060448201526064016105ae565b6007546001600160a01b0383166000908152602081905260409020546114f9908390611816565b11156115475760405162461bcd60e51b815260206004820152601b60248201527f57616c6c657420776f756c6420657863656564206d6178696d756d000000000060448201526064016105ae565b6001600160a01b0383166000908152602081905260408120805483929061156f908490611829565b90915550506001600160a01b0382166000908152602081905260408120805483929061159c908490611816565b92505081905550816001600160a01b0316836001600160a01b03167fddf252ad1be2c89b69c2b068fc378daa952ba7f163c4a11628f55a4df523b3ef8360405161120391815260200190565b6000815180845260005b8181101561160e576020818501810151868301820152016115f2565b506000602082860101526020601f19601f83011685010191505092915050565b60208152600061164160208301846115e8565b9392505050565b80356001600160a01b038116811461165f57600080fd5b919050565b6000806040838503121561167757600080fd5b61168083611648565b946020939093013593505050565b6000806000606084860312156116a357600080fd5b6116ac84611648565b92506116ba60208501611648565b929592945050506040919091013590565b6000602082840312156116dd57600080fd5b5035919050565b6000602082840312156116f657600080fd5b61164182611648565b60808152600061171260808301876115e8565b828103602084015261172481876115e8565b9050828103604084015261173881866115e8565b9050828103606084015261174c81856115e8565b979650505050505050565b6000806040838503121561176a57600080fd5b61177383611648565b91506020830135801515811461178857600080fd5b809150509250929050565b600080604083850312156117a657600080fd5b6117af83611648565b91506117bd60208401611648565b90509250929050565b600181811c908216806117da57607f821691505b6020821081036117fa57634e487b7160e01b600052602260045260246000fd5b50919050565b634e487b7160e01b600052601160045260246000fd5b8082018082111561055a5761055a611800565b8181038181111561055a5761055a611800565b6020808252818101527f4e6f74206f776e6572206f72206f776e6572736869702072656e6f756e636564604082015260600190565b60008261188e57634e487b7160e01b600052601260045260246000fd5b500490565b60208082526021908201527f43616e6e6f742065786365656420313025206f6620746f74616c20737570706c6040820152607960f81b606082015260800190565b808202811582820484141761055a5761055a61180056fe4e6f20666565732c206c696d69746564206f776e657220706f776572732c206175746f6d617469632072656e6f756e63656d656e74436f6d6d756e697479207665726966696564207374616e64616c6f6e6520696d706c656d656e746174696f6e36302d646179206175746f6d617469632072656e6f756e63656d656e742067756172616e74656564a264697066735822122077b61a2359b39d9096a4e242b725fb084b048fad5c722699ae38912f93bc949864736f6c634300081a0033",
  "linkReferences": {},
  "deployedLinkReferences": {}
}