{
  "_format": "hh-sol-artifact-1",
  "contractName": "StakingStandalone",
  "sourceName": "contracts/StakingStandalone.sol",
  "abi": [
    {
      "inputs": [
        {
          "internalType": "address",
          "name": "_dayaTokenAddress",
          "type": "address"
        }
      ],
      "stateMutability": "nonpayable",
      "type": "constructor"
    },
    {
      "anonymous": false,
      "inputs": [
        {
          "indexed": true,
          "internalType": "address",
          "name": "user",
          "type": "address"
        },
        {
          "indexed": false,
          "internalType": "uint256",
          "name": "newAmount",
          "type": "uint256"
        }
      ],
      "name": "RewardsCompounded",
      "type": "event"
    },
    {
      "anonymous": false,
      "inputs": [
        {
          "indexed": true,
          "internalType": "address",
          "name": "user",
          "type": "address"
        },
        {
          "indexed": false,
          "internalType": "uint256",
          "name": "amount",
          "type": "uint256"
        },
        {
          "indexed": false,
          "internalType": "uint256",
          "name": "period",
          "type": "uint256"
        }
      ],
      "name": "Staked",
      "type": "event"
    },
    {
      "anonymous": false,
      "inputs": [
        {
          "indexed": true,
          "internalType": "address",
          "name": "user",
          "type": "address"
        },
        {
          "indexed": false,
          "internalType": "uint256",
          "name": "amount",
          "type": "uint256"
        },
        {
          "indexed": false,
          "internalType": "uint256",
          "name": "rewards",
          "type": "uint256"
        }
      ],
      "name": "Unstaked",
      "type": "event"
    },
    {
      "inputs": [
        {
          "internalType": "address",
          "name": "_staker",
          "type": "address"
        }
      ],
      "name": "calculateRewards",
      "outputs": [
        {
          "internalType": "uint256",
          "name": "",
          "type": "uint256"
        }
      ],
      "stateMutability": "view",
      "type": "function"
    },
    {
      "inputs": [],
      "name": "dayaToken",
      "outputs": [
        {
          "internalType": "contract IERC20",
          "name": "",
          "type": "address"
        }
      ],
      "stateMutability": "view",
      "type": "function"
    },
    {
      "inputs": [],
      "name": "earlyUnstakePenaltyBps",
      "outputs": [
        {
          "internalType": "uint256",
          "name": "",
          "type": "uint256"
        }
      ],
      "stateMutability": "view",
      "type": "function"
    },
    {
      "inputs": [],
      "name": "owner",
      "outputs": [
        {
          "internalType": "address",
          "name": "",
          "type": "address"
        }
      ],
      "stateMutability": "view",
      "type": "function"
    },
    {
      "inputs": [],
      "name": "penaltyWallet",
      "outputs": [
        {
          "internalType": "address",
          "name": "",
          "type": "address"
        }
      ],
      "stateMutability": "view",
      "type": "function"
    },
    {
      "inputs": [
        {
          "internalType": "uint256",
          "name": "_amount",
          "type": "uint256"
        },
        {
          "internalType": "uint256",
          "name": "_tierIndex",
          "type": "uint256"
        }
      ],
      "name": "stake",
      "outputs": [],
      "stateMutability": "nonpayable",
      "type": "function"
    },
    {
      "inputs": [
        {
          "internalType": "address",
          "name": "",
          "type": "address"
        }
      ],
      "name": "stakes",
      "outputs": [
        {
          "internalType": "uint256",
          "name": "amount",
          "type": "uint256"
        },
        {
          "internalType": "uint256",
          "name": "since",
          "type": "uint256"
        },
        {
          "internalType": "uint256",
          "name": "stakingPeriod",
          "type": "uint256"
        },
        {
          "internalType": "uint256",
          "name": "rewards",
          "type": "uint256"
        },
        {
          "internalType": "bool",
          "name": "compounded",
          "type": "bool"
        }
      ],
      "stateMutability": "view",
      "type": "function"
    },
    {
      "inputs": [
        {
          "internalType": "uint256",
          "name": "",
          "type": "uint256"
        }
      ],
      "name": "stakingTiers",
      "outputs": [
        {
          "internalType": "uint256",
          "name": "period",
          "type": "uint256"
        },
        {
          "internalType": "uint256",
          "name": "apyBps",
          "type": "uint256"
        }
      ],
      "stateMutability": "view",
      "type": "function"
    },
    {
      "inputs": [],
      "name": "unstake",
      "outputs": [],
      "stateMutability": "nonpayable",
      "type": "function"
    }
  ],
  "bytecode": "0x60a06040526109c460035534801561001657600080fd5b50604051610b54380380610b5483398101604081905261003591610170565b6001600160a01b031660805260008054336001600160a01b03199182168117835560048054909216179055604080518082018252601e81526103e86020808301918252600280546001818101835582885294517f405787fa12a823e0f2b7631cc41b3ba8828b3321ca811111fa75cd3aa3bb5ace9183028281019190915593517f405787fa12a823e0f2b7631cc41b3ba8828b3321ca811111fa75cd3aa3bb5acf9485015585518087018752605a81526105dc81850190815283548088018555848a5291519184028084019290925551908501558551808701875260b481526107d081850190815283548088018555848a529151918402808401929092555190850155855180870190965261016d8652610bb892860192835281549485018255958190529351929093029384019190915590519101556101a0565b60006020828403121561018257600080fd5b81516001600160a01b038116811461019957600080fd5b9392505050565b6080516109846101d060003960008181610190015281816102d4015281816103a1015261061d01526109846000f3fe608060405234801561001057600080fd5b50600436106100935760003560e01c80637b0472f0116100665780637b0472f01461013a5780638b7526771461014d5780638da5cb5b14610178578063a951f28e1461018b578063d50267ee146101b257600080fd5b806316934fc4146100985780632def6620146101065780633a9b02051461011057806364ab867514610127575b600080fd5b6100d76100a6366004610830565b6001602081905260009182526040909120805491810154600282015460038301546004909301549192909160ff1685565b6040805195865260208601949094529284019190915260608301521515608082015260a0015b60405180910390f35b61010e6101da565b005b61011960035481565b6040519081526020016100fd565b610119610135366004610830565b610452565b61010e610148366004610860565b61051c565b600454610160906001600160a01b031681565b6040516001600160a01b0390911681526020016100fd565b600054610160906001600160a01b031681565b6101607f000000000000000000000000000000000000000000000000000000000000000081565b6101c56101c0366004610882565b61078a565b604080519283526020830191909152016100fd565b336000908152600160205260409020805461022d5760405162461bcd60e51b815260206004820152600e60248201526d139bc81cdd185ad948199bdd5b9960921b60448201526064015b60405180910390fd5b600081600101544261023f91906108b1565b9050600061024c33610452565b9050600081846000015461026091906108ca565b905083600201546201518061027591906108dd565b8310156103465760006127106003548361028f91906108dd565b61029991906108f4565b90506102a581836108b1565b6004805460405163a9059cbb60e01b81526001600160a01b0391821692810192909252602482018490529193507f00000000000000000000000000000000000000000000000000000000000000009091169063a9059cbb906044016020604051808303816000875af115801561031f573d6000803e3d6000fd5b505050506040513d601f19601f820116820180604052508101906103439190610916565b50505b3360008181526001602081905260408083208381559182018390556002820183905560038201929092556004908101805460ff19169055905163a9059cbb60e01b815290810191909152602481018290526001600160a01b037f0000000000000000000000000000000000000000000000000000000000000000169063a9059cbb906044016020604051808303816000875af11580156103ea573d6000803e3d6000fd5b505050506040513d601f19601f8201168201806040525081019061040e9190610916565b508354604080519182526020820184905233917f7fc4727e062e336010f2c282598ef5f14facb3de68cf8195c2f23e1454b2b74e910160405180910390a250505050565b6001600160a01b0381166000908152600160208181526040808420815160a08101835281548082529482015493810193909352600281015491830191909152600381015460608301526004015460ff16151560808201529082036104b95750600092915050565b60008160200151426104cb91906108b1565b905060006127106104df84604001516107b8565b84516104eb91906108dd565b6104f591906108f4565b905060006301e1338061050884846108dd565b61051291906108f4565b9695505050505050565b6000821161056c5760405162461bcd60e51b815260206004820152601d60248201527f416d6f756e74206d7573742062652067726561746572207468616e20300000006044820152606401610224565b60025481106105ac5760405162461bcd60e51b815260206004820152600c60248201526b24b73b30b634b2103a34b2b960a11b6044820152606401610224565b33600090815260016020526040902054156105fb5760405162461bcd60e51b815260206004820152600f60248201526e416c7265616479207374616b696e6760881b6044820152606401610224565b6040516323b872dd60e01b8152336004820152306024820152604481018390527f00000000000000000000000000000000000000000000000000000000000000006001600160a01b0316906323b872dd906064016020604051808303816000875af115801561066e573d6000803e3d6000fd5b505050506040513d601f19601f820116820180604052508101906106929190610916565b506040518060a00160405280838152602001428152602001600283815481106106bd576106bd610938565b600091825260208083206002928302015484528381018390526040938401839052338084526001808352938590208651815591860151938201939093559284015183820155606084015160038401556080909301516004909201805460ff191692151592909217909155815490917f1449c6dd7851abc30abf37f57715f492010519147cc2652fbc38202c18a6ee90918591908590811061076057610760610938565b60009182526020918290206002909102015460408051938452918301520160405180910390a25050565b6002818154811061079a57600080fd5b60009182526020909120600290910201805460019091015490915082565b6000805b6002548110156108265782600282815481106107da576107da610938565b9060005260206000209060020201600001540361081e576002818154811061080457610804610938565b906000526020600020906002020160010154915050919050565b6001016107bc565b506103e892915050565b60006020828403121561084257600080fd5b81356001600160a01b038116811461085957600080fd5b9392505050565b6000806040838503121561087357600080fd5b50508035926020909101359150565b60006020828403121561089457600080fd5b5035919050565b634e487b7160e01b600052601160045260246000fd5b818103818111156108c4576108c461089b565b92915050565b808201808211156108c4576108c461089b565b80820281158282048414176108c4576108c461089b565b60008261091157634e487b7160e01b600052601260045260246000fd5b500490565b60006020828403121561092857600080fd5b8151801515811461085957600080fd5b634e487b7160e01b600052603260045260246000fdfea2646970667358221220d3c5a1c2801db87322db68c77befb4b000d60e6071f0f17b923f0c760f0b56d664736f6c634300081a0033",
  "linkReferences": {},
  "deployedLinkReferences": {}
}