{
  "_format": "hh-sol-artifact-1",
  "contractName": "AirdropStandalone",
  "sourceName": "contracts/AirdropStandalone.sol",
  "abi": [
    {
      "inputs": [
        {
          "internalType": "address",
          "name": "_dayaTokenAddress",
          "type": "address"
        }
      ],
      "stateMutability": "nonpayable",
      "type": "constructor"
    },
    {
      "anonymous": false,
      "inputs": [
        {
          "indexed": true,
          "internalType": "bytes32",
          "name": "merkleRoot",
          "type": "bytes32"
        },
        {
          "indexed": false,
          "internalType": "uint256",
          "name": "claimDeadline",
          "type": "uint256"
        }
      ],
      "name": "AirdropStarted",
      "type": "event"
    },
    {
      "anonymous": false,
      "inputs": [
        {
          "indexed": true,
          "internalType": "address",
          "name": "claimant",
          "type": "address"
        },
        {
          "indexed": false,
          "internalType": "uint256",
          "name": "amount",
          "type": "uint256"
        }
      ],
      "name": "TokensClaimed",
      "type": "event"
    },
    {
      "anonymous": false,
      "inputs": [
        {
          "indexed": false,
          "internalType": "uint256",
          "name": "amount",
          "type": "uint256"
        }
      ],
      "name": "TokensRecovered",
      "type": "event"
    },
    {
      "inputs": [
        {
          "internalType": "uint256",
          "name": "_amount",
          "type": "uint256"
        },
        {
          "internalType": "bytes32[]",
          "name": "_merkleProof",
          "type": "bytes32[]"
        }
      ],
      "name": "claim",
      "outputs": [],
      "stateMutability": "nonpayable",
      "type": "function"
    },
    {
      "inputs": [],
      "name": "claimDeadline",
      "outputs": [
        {
          "internalType": "uint256",
          "name": "",
          "type": "uint256"
        }
      ],
      "stateMutability": "view",
      "type": "function"
    },
    {
      "inputs": [],
      "name": "dayaToken",
      "outputs": [
        {
          "internalType": "contract IERC20",
          "name": "",
          "type": "address"
        }
      ],
      "stateMutability": "view",
      "type": "function"
    },
    {
      "inputs": [
        {
          "internalType": "address",
          "name": "",
          "type": "address"
        }
      ],
      "name": "hasClaimed",
      "outputs": [
        {
          "internalType": "bool",
          "name": "",
          "type": "bool"
        }
      ],
      "stateMutability": "view",
      "type": "function"
    },
    {
      "inputs": [],
      "name": "merkleRoot",
      "outputs": [
        {
          "internalType": "bytes32",
          "name": "",
          "type": "bytes32"
        }
      ],
      "stateMutability": "view",
      "type": "function"
    },
    {
      "inputs": [],
      "name": "owner",
      "outputs": [
        {
          "internalType": "address",
          "name": "",
          "type": "address"
        }
      ],
      "stateMutability": "view",
      "type": "function"
    },
    {
      "inputs": [],
      "name": "recoverTokens",
      "outputs": [],
      "stateMutability": "nonpayable",
      "type": "function"
    },
    {
      "inputs": [
        {
          "internalType": "bytes32",
          "name": "_merkleRoot",
          "type": "bytes32"
        },
        {
          "internalType": "uint256",
          "name": "_claimDeadline",
          "type": "uint256"
        }
      ],
      "name": "startAirdrop",
      "outputs": [],
      "stateMutability": "nonpayable",
      "type": "function"
    }
  ],
  "bytecode": "0x60a0604052348015600f57600080fd5b50604051610969380380610969833981016040819052602c91604e565b6001600160a01b0316608052600080546001600160a01b03191633179055607c565b600060208284031215605f57600080fd5b81516001600160a01b0381168114607557600080fd5b9392505050565b6080516108bd6100ac6000396000818161013d015281816102fa0152818161057b015261061a01526108bd6000f3fe608060405234801561001057600080fd5b50600436106100885760003560e01c806373b2e80e1161005b57806373b2e80e146100da5780638da5cb5b1461010d578063a951f28e14610138578063b77f39fe1461015f57600080fd5b80632eb4a7ab1461008d5780632f52ebb7146100a95780633ba86c44146100be5780635ba58740146100c7575b600080fd5b61009660015481565b6040519081526020015b60405180910390f35b6100bc6100b7366004610763565b610167565b005b61009660025481565b6100bc6100d53660046107e4565b6103ab565b6100fd6100e8366004610806565b60036020526000908152604090205460ff1681565b60405190151581526020016100a0565b600054610120906001600160a01b031681565b6040516001600160a01b0390911681526020016100a0565b6101207f000000000000000000000000000000000000000000000000000000000000000081565b6100bc6104d3565b6002544211156101b35760405162461bcd60e51b815260206004820152601260248201527110db185a5b481c195c9a5bd908195b99195960721b60448201526064015b60405180910390fd5b3360009081526003602052604090205460ff16156102055760405162461bcd60e51b815260206004820152600f60248201526e105b1c9958591e4818db185a5b5959608a1b60448201526064016101aa565b6040516bffffffffffffffffffffffff193360601b166020820152603481018490526000906054016040516020818303038152906040528051906020012090506102868383808060200260200160405190810160405280939291908181526020018383602002808284376000920191909152505060015491508490506106be565b6102c25760405162461bcd60e51b815260206004820152600d60248201526c24b73b30b634b210383937b7b360991b60448201526064016101aa565b3360008181526003602052604090819020805460ff191660011790555163a9059cbb60e01b81526004810191909152602481018590527f00000000000000000000000000000000000000000000000000000000000000006001600160a01b03169063a9059cbb906044016020604051808303816000875af115801561034b573d6000803e3d6000fd5b505050506040513d601f19601f8201168201806040525081019061036f9190610836565b5060405184815233907f896e034966eaaf1adc54acc0f257056febbd300c9e47182cf761982cf1f5e4309060200160405180910390a250505050565b6000546001600160a01b031633146103f15760405162461bcd60e51b81526020600482015260096024820152682737ba1037bbb732b960b91b60448201526064016101aa565b600154156104415760405162461bcd60e51b815260206004820152601760248201527f41697264726f7020616c7265616479207374617274656400000000000000000060448201526064016101aa565b4281116104905760405162461bcd60e51b815260206004820152601e60248201527f446561646c696e65206d75737420626520696e2074686520667574757265000060448201526064016101aa565b6001829055600281905560405181815282907faa04bd33f1720736c84195213dd6f8ca3f29c0d5f2e74ea0315920b9559252219060200160405180910390a25050565b6000546001600160a01b031633146105195760405162461bcd60e51b81526020600482015260096024820152682737ba1037bbb732b960b91b60448201526064016101aa565b60025442116105635760405162461bcd60e51b815260206004820152601660248201527510db185a5b481c195c9a5bd9081b9bdd08195b99195960521b60448201526064016101aa565b6040516370a0823160e01b81523060048201526000907f00000000000000000000000000000000000000000000000000000000000000006001600160a01b0316906370a0823190602401602060405180830381865afa1580156105ca573d6000803e3d6000fd5b505050506040513d601f19601f820116820180604052508101906105ee9190610858565b60005460405163a9059cbb60e01b81526001600160a01b039182166004820152602481018390529192507f0000000000000000000000000000000000000000000000000000000000000000169063a9059cbb906044016020604051808303816000875af1158015610663573d6000803e3d6000fd5b505050506040513d601f19601f820116820180604052508101906106879190610836565b506040518181527fbe842a2fe0dcb4d753f6d8de0884c9fe5e49f6c1e9d4c1b61d2a0c8fe16506319060200160405180910390a150565b600081815b85518110156107585760008682815181106106e0576106e0610871565b6020026020010151905080831161072257604080516020810185905290810182905260600160405160208183030381529060405280519060200120925061074f565b60408051602081018390529081018490526060016040516020818303038152906040528051906020012092505b506001016106c3565b509092149392505050565b60008060006040848603121561077857600080fd5b83359250602084013567ffffffffffffffff81111561079657600080fd5b8401601f810186136107a757600080fd5b803567ffffffffffffffff8111156107be57600080fd5b8660208260051b84010111156107d357600080fd5b939660209190910195509293505050565b600080604083850312156107f757600080fd5b50508035926020909101359150565b60006020828403121561081857600080fd5b81356001600160a01b038116811461082f57600080fd5b9392505050565b60006020828403121561084857600080fd5b8151801515811461082f57600080fd5b60006020828403121561086a57600080fd5b5051919050565b634e487b7160e01b600052603260045260246000fdfea26469706673582212206af580d63d9d66e781a3024d8bcaddb108e9a6fa72ab9a64779c7ce388d4cc7f64736f6c634300081a0033",
  "linkReferences": {},
  "deployedLinkReferences": {}
}